:020000040800F2
:10000000B007002049010008CB4500087D370008F3
:10001000C94500087B0700082765000800000000AC
:10002000000000000000000000000000915F0008D8
:100030008907000800000000D1450008935F000810
:1000400063010008CD450008630100086301000852
:1000500063010008630100086301000863010008F0
:100060006301000863010008630100087D070008C0
:1000700063010008630100086301000863010008D0
:100080006301000863010008190700086301000804
:100090006301000863010008630100086B090008A0
:1000A00063010008630100086301000863010008A0
:1000B000630100080D600008630100088D37000827
:1000C000813700086301000863010008630100082C
:1000D000755F0008F164000863010008FD64000812
:1000E0004D0900086301000863010008630100086E
:1000F0006301000863010008630100086301000850
:10010000630100086301000863010008630100083F
:10011000630100086301000863010008630100082F
:10012000630100086301000863010008630100081F
:10013000DFF810D000F060FA00480047716E000848
:10014000AFF30080B007002006488047064800470C
:10015000FEE7FEE7FEE7FEE7FEE7FEE7FEE7FEE777
:10016000FEE7FEE70B60000831010008202A04DBEF
:10017000203A21FA02F00021704721FA02F3D04020
:10018000C2F12002914008431946704740EA01033A
:100190009B0703D009E008C9121F08C0042AFAD23D
:1001A00003E011F8013B00F8013B521EF9D2704701
:1001B000D2B201E000F8012B491EFBD270470022A9
:1001C000F6E710B513460A4604461946FFF7F0FF56
:1001D000204610BD421E12F8013F002BFBD111F842
:1001E000013B02F8013B002BF9D17047421C10F88B
:1001F000011B0029FBD1801A704730B50B46014620
:1002000000202022012409E021FA02F59D4205D3B5
:1002100003FA02F5491B04FA02F52844151EA2F15F
:100220000102F1DC30BD2DE9F05F05460020924669
:100230009B4688460646814640241BE028464146A8
:1002400047462246FFF792FF53465A46C01A91414D
:1002500010D311461846224600F0E0F92D1A67EB3C
:1002600001084F4622460120002100F0D7F917EB84
:1002700000094E41201EA4F10104DFDC484631464E
:100280002A464346BDE8F09F2DE9FE4F804681EAAD
:100290000300C00F0C46009021F0004123F0004500
:1002A000B8EB0200A94105D24046214690461C46C3
:1002B0000B46024623F00040104347D0270DC7F3FA
:1002C0000A00C3F30A510290401A019040286BDAE9
:1002D000C3F3130040F4801B0098924620B1002322
:1002E000D2EB030A63EB0B0B01985946C0F14002B5
:1002F000504600F093F906460D4650465946019A7D
:1003000000F09BF910EB08006141002487EA1152CC
:1003100084EAE7731A4340D0009A62B3019A012A33
:100320004FEA075215DC001B61EB02014FF000425F
:1003300002EA0752CDE90042001C41F58011324625
:100340002B4600F09BF903B0BDE8F08F40462146F4
:10035000F9E7001B61EB0201001C41F58013001856
:100360005B412018A2F5001747EB030140EAD57066
:10037000B6196D4111E06D084FEA360645EAC075C1
:100380004FEA0752001B61EB0201001C41F580118E
:1003900049084FEA30000019514132462B4603B05C
:1003A000BDE8F04F00F05BB9009801224000002347
:1003B000D0EB020263EBE073009821464FEAE07451
:1003C000B8EB000061EB0401E9E783F000435BE771
:1003D00081F0004158E72DE9FE4F81EA030404F063
:1003E000004421F0004100944FF0000B23F0004343
:1003F00050EA01045ED052EA03045BD0C3F30A540E
:10040000C1F30A552C44A4F2F3340194A0FB025426
:10041000C1F3130141F48011C3F3130343F48013B8
:1004200001FB024400FB034E840A970A44EA81540C
:1004300047EA8357A4FB076802958D0A05FB0785E9
:100440004FEA932C04FB0C542705029D4FEA0658F3
:1004500047EA1637B5EB08056EEB070C870E920ED0
:1004600047EA811742EA8312A7FB0201B6EB0B01B0
:1004700064EB00042B0D43EA0C335E1844EB1C5074
:10048000DA465146E7FB0201C5F313044FEA0B338A
:1004900043EA14534FEA0432019C43EA0603A4F1F1
:1004A0000C040294009CCDE900B400F0E7F803B01E
:1004B000BDE8F08F00200146F9E72DE9F04D81EA13
:1004C000030404F0004B21F0004514464FF0000AED
:1004D00023F0004150EA050220D054EA01021DD069
:1004E000C5F30A570246C5F31303C1F31300C1F362
:1004F0000A5640F4801543F48013A7EB0608101B3E
:10050000D64608F2FD3873EB050002D308F1010866
:1005100001E092185B41B8F1000F03DA00200146B8
:10052000BDE8F08D00204FF48011064684460EE0B1
:10053000171B73EB050705D3121B63EB050306437B
:100540004CEA010C49084FEA300092185B4150EA2E
:100550000107EDD152EA030012D082EA040083EAD7
:100560000501084305D0101BAB4106D20122002330
:1005700006E000224FF0004302E06FF0010253104A
:100580001AEB06004CEB085110EB0A0041EB0B0193
:10059000BDE8F04D00F063B8C1F30A52C1F3130196
:1005A00040F2FF3341F480119A4202DA0020014602
:1005B000704740F233439A42A2F2334202DC524285
:1005C000FFF7D4BD00F02AB830B5041E71F1000465
:1005D00004DB4FF00044404264EB0101141E73F150
:1005E000000405DB1C464FF00043524263EB04035A
:1005F000994208BF904230BD064C074D06E0E068C6
:1006000040F0010394E8070098471034AC42F6D359
:10061000FFF792FDB4770008D4770008202A04DBA6
:10062000203A00FA02F1002070479140C2F1200305
:1006300020FA03F3194390407047202A06DBCB17BA
:10064000203A41FA02F043EAE07306E041FA02F38D
:10065000D040C2F12002914008431946704710B5BE
:10066000141E73F1000408DA401C41F100019218D5
:100670005B411A4301D120F0010010BD2DE9F04D7E
:1006800092469B4611B1B1FA81F202E0B0FA80F2D3
:1006900020329046FFF7C2FF04460F4640EA0A00A8
:1006A00041EA0B0153465A46084313D0114653EA18
:1006B000010019D0C8F140025046FFF757FD05462A
:1006C0000E46504659464246FFF7A8FF084305D05C
:1006D000012004E020463946BDE8F08D00200543A6
:1006E00046EAE0762C4337430A986305E40AA0EB18
:1006F00008000022FD0A44EA47540A3002D50020CF
:100700000146E9E7010510196941DDE908450019CD
:100710006941BDE8F04DA2E7014800F036BF000096
:10072000A800002070B5044600688168C943C90765
:1007300017D1816821F00101816001F021FC05469B
:100740000AE000BF01F01CFC401B022804D920680D
:100750008068C043C00706D020688068C043C007D7
:10076000F0D0002070BDA06A40F01000A062E06AE6
:1007700040F00100E062012070BDFEE7014801F099
:1007800013B90000D80000207047000038B10128DC
:1007900007D0022807D0032807D005A0704706A07D
:1007A000704707A0704708A0704709A07047000075
:1007B000554E4B4E200000004552524F5200000053
:1007C0005741524E20000000494E464F2000000085
:1007D0004445425547000000054910B50120087006
:1007E00004A10F4805F090FEBDE8104000F01AB8D3
:1007F0002C0000200D0A3D3D3D20C8FDCDA8B5C010
:10080000C7D0BBBBCFE4BFD8D6C6CFB5CDB3B5F745
:10081000CAD4C6F4B6AF203D3D3D0D0A000000002D
:100820006403002010B50EA1022000F057F80FA1BC
:10083000022000F053F802F043F81249B0FBF1F245
:1008400011A1022000F04AF814A1022000F046F89D
:10085000BDE8104016A319A21BA1022000F03EB86B
:10086000CFB5CDB3D0C5CFA23A00000020204D4374
:10087000553A2053544D3332463130335243543677
:100880000000000040420F002020CFB5CDB3CAB118
:10089000D6D33A20256C75204D487A002020B9CC5B
:1008A000BCFEB0E6B1BE3A2076322E300000000029
:1008B00030313A31313A3433000000004A756E204D
:1008C00033302032303235002020B1E0D2EBCAB1D3
:1008D000BCE43A2025732025730000000FB438B51E
:1008E00005461348007800281ED006AC01F048FBEE
:1008F00003462846FFF74AFF00900EA24FF480718E
:10090000104805F011FE0F4AC0F5807110442346CF
:10091000059A05F023FE0CA10A48FFF75BFC094984
:1009200001F5A47005F0F0FD38BC5DF814FB000083
:100930002C0000205B2530386C755D5B25735D20D5
:10094000000000001C0200200D0A000010B54FF44A
:10095000005001F003FA4FF4804001F0FFF9BDE8C8
:1009600010404FF4004001F0F9B910B5202001F01B
:10097000F5F94FF4807001F0F1F9BDE810404FF443
:10098000007001F0EBB9000007A10020FFF7A6FFFF
:100990000EA10020FFF7A2FF72B64FF4FA742046B2
:1009A00001F064F9FBE70000CFB5CDB3B7A2C9FAF7
:1009B000D1CFD6D8B4EDCEF3A3ACBDF8C8EBB4ED2F
:1009C000CEF3B4A6C0EDB3CCD0F20000CFB5CDB31A
:1009D000BDABB1BBB9D2C6F0A3ACC7EBBCECB2E9BE
:1009E000D3B2BCFEC1ACBDD3BACDC5E4D6C3000002
:1009F0002DE9F0411F4615460E46804600240CE0C6
:100A0000404600F09DF9B04202D00020BDE8F081E0
:100A1000384601F02BF9641CE4B2AC42F0D301205B
:100A2000F4E70000064A002128B1012805D0022879
:100A300000D191707047117070475170704700007D
:100A400040000020064928B1012805D0022805D021
:100A5000002070470878704748787047887870475A
:100A60004000002010B5044601F08AFA4F49B4F561
:100A7000007F1CD0B4F5807F39D0B4F5004F55D03D
:100A8000202C76D0B4F5005F6DD0B4F5804F6BD1DB
:100A90008A69821AC82A67D98A7842F002028A7063
:100AA000886143A10320BDE81040FFF717BF4A68E3
:100AB000821A322A78D90A7842F001020A70486014
:100AC000002000F03DF9044602463EA10220FFF757
:100AD00005FF3223032221460020FFF789FF00286B
:100AE00062D014B13EA10220DDE745A1FBE78A6890
:100AF000821A322A58D90A7842F002020A708860B3
:100B0000012000F01DF90446024645A10220FFF72E
:100B1000E5FE3223032221460120FFF769FF00286A
:100B200042D00CB145A1DEE74CA1DCE7CA68821ACD
:100B3000322A39D90A7842F004020A70C8600220C9
:100B400000F0FEF8044602464CA10220FFF7C6FE64
:100B50003223032221460220FFF74AFF002823D038
:100B60002CB102E005E014E01EE04BA1BBE752A16E
:100B7000B9E70A69821A322A16D901224A70086135
:100B800000F0F8F80246BDE8104053A10120FFF73D
:100B9000A5BE4A69821AC82A06D98A7842F001029B
:100BA0008A70486154A17DE710BD0000400000201C
:100BB0004B455932B0B4BCFCD6D0B6CFB4A5B7A221
:100BC000000000004B315F454ED6D0B6CFB4A5B77C
:100BD000A22C20B5B1C7B0D7B4CCAC3A2025640064
:100BE0004B315F454EC9CFC9FDD1D8BCECB2E2A3B1
:100BF000ACD7BCB1B8B9D8B1D5CDA8B5C03100001B
:100C00004B315F454ECFC2BDB5D1D8BCECB2E2A3EB
:100C1000ACD7BCB1B8BFAAC6F4CDA8B5C0310000EE
:100C20004B325F454ED6D0B6CFB4A5B7A22C20B577
:100C3000B1C7B0D7B4CCAC3A202564004B325F4585
:100C40004EC9CFC9FDD1D8BCECB2E2A3ACD7BCB180
:100C5000B8B9D8B1D5CDA8B5C03200004B325F4588
:100C60004ECFC2BDB5D1D8BCECB2E2A3ACD7BCB1BB
:100C7000B8BFAAC6F4CDA8B5C03200004B335F455B
:100C80004ED6D0B6CFB4A5B7A22C20B5B1C7B0D739
:100C9000B4CCAC3A202564004B335F454EC9CFC974
:100CA000FDD1D8BCECB2E2A3ACD7BCB1B8B9D8B1D5
:100CB000D5CDA8B5C03300004B335F454ECFC2BD84
:100CC000B5D1D8BCECB2E2A3ACD7BCB1B8BFAAC610
:100CD000F4CDA8B5C033000044435F4354524CD612
:100CE000D0B6CFB4A5B7A22C20B5E7D4B4D7B4CC36
:100CF000AC3A2025640000004B455931B0B4BCFC2F
:100D0000D6D0B6CFB4A5B7A20000000010B52421FC
:100D10000448FFF754FABDE8104003A10220FFF792
:100D2000DDBD0000400000204750494FD6D0B6CF6F
:100D3000CFB5CDB3B3F5CABCBBAFCDEAB3C90000E4
:100D400001000A4A4FF0000008D0012909D0022909
:100D50000BD10748890300BF01F008B94FF40071B7
:100D600001E04FF480711046F6E77047000C014037
:100D7000000801402021014801F0F8B8000C0140B2
:100D80004FF48051014801F0F1B80000001001401B
:100D9000014630B400200E4B0E4A062916D2DFE879
:100DA00001F00305070A0D0F102102E0022109E0FE
:100DB0002021184607E04FF4806103E0012101E0A3
:100DC0004FF40061104630BC01F0D0B830BC704721
:100DD00000100140000C014002004FF000004FF4F1
:100DE000807105D0064B012A04D0022A07D103E006
:100DF000044802E04FF40071184601F0B7B870479C
:100E0000001001400008014070B52EA10220FFF73C
:100E100065FD314C01221146204601F0ACF801225B
:100E20000221204601F0A7F8012211032B4801F00E
:100E3000A2F82B4D01220821284601F09CF801223E
:100E40000421204601F097F801220821204601F0F4
:100E500092F801221021284601F08DF8012220216C
:100E6000284601F088F801228021204601F083F80D
:100E700001224021204601F07EF801220421194878
:100E800001F079F801228021284601F074F816A1BA
:100E90000220FFF723FD0024E0B200F0EFF808B1D4
:100EA00015A300E016A3621C17A10220FFF716FD90
:100EB000641C032CF0DBBDE8704017A10220FFF793
:100EC0000DBD0000BCCCB5E7C6F7B3F5CABCBBAFDF
:100ED000BFAACABC0000000000100140000C014085
:100EE0000008014000140140BCCCB5E7C6F7B3F5DB
:100EF000CABCD7B4CCAC3A00CEFCBACF00000000DC
:100F0000B6CFBFAA000000002020CDA8B5C0256440
:100F10003A20257300000000BCCCB5E7C6F7B3F556
:100F2000CABCBBAFCDEAB3C90000000070B50E4625
:100F3000040005D0012C06D0022C07D0012070BD82
:100F40000020012504E00220032501E004200525FE
:100F5000E6B100F0E3F8284600F0E0F8621C2DA1AD
:100F60000220FFF7BBFC0025642000F07FFE304824
:100F700001F0C3FA6D1C052DF6DB2E482E4D6EB127
:100F80004CB3012C2ED0022C3CD132E000F0EAF818
:100F9000284600F0E7F8621C28A1E1E724B1012C03
:100FA0000AD0022C2ED10EE00122114600F0E3FF00
:100FB00001221103284823E00122042100F0DBFF75
:100FC000012210211BE00122802100F0D4FF012228
:100FD0000421224814E00122022100F0CCFF01226A
:100FE00008210CE00122082100F0C5FF0122202188
:100FF00005E00122402100F0BEFF012280212846A9
:1010000000F0B9FF621C16A10220FFF767FC002068
:1010100070BD0000CDA8B5C02564BCCCB5E7C6F74F
:10102000B6CFBFAAC2F6B3E5BFAACABC0000000093
:10103000700100200010014000080140CDA8B5C09B
:101040002564BCCCB5E7C6F7CEFCBACFC2F6B3E593
:10105000BFAACABC00000000000C014000140140FF
:10106000CDA8B5C02564BCCCB5E7C6F7C2F6B3E5DC
:10107000BFD8D6C6CDEAB3C90000000070B586B0AF
:10108000040004D0012C0CD0022C30D125E000202B
:10109000FFF77EFE06460120FFF77AFE0546002098
:1010A00008E00220FFF774FE06460320FFF770FEFB
:1010B00005460120FFF790FE611CCDE90115009661
:1010C000CDE90310631C621C0AA10320FFF706FC94
:1010D0006EB165B1012006B070BD0420FFF758FE67
:1010E00006460520FFF754FE05460220E2E70020F1
:1010F000F1E70000CDA8B5C02564D7B4CCAC3A2048
:101100004B25645F313D25642C204B25645F323DC7
:1011100025642C20535725643D25640001460F4863
:101120000F4B062918D2DFE801F00306090C101452
:10113000002202210BE00022082104E00022082105
:1011400005E000222021184601E00022402100F0A5
:1011500012BF00228021F6E7704700000010014016
:10116000000801400146104806291BD2DFE801F0C3
:1011700003060B0E12150022012111E000224FF48C
:1011800080510A480CE00022042109E000221021CD
:10119000074805E00022802102E0002204210548E2
:1011A00000F0E9BE7047000000100140000C014053
:1011B00000080140001401402DE9FE434FF00008F3
:1011C000204D42464046295C09B9521CD2B2401C0F
:1011D0000328F8DB012A05D91BA10020FFF77EFBBD
:1011E0004FF001080024A94609EB440109EB040073
:1011F000CD780E79477AB5420BD0601CCDE900500E
:10120000631C621C1AA102960120FFF767FB4FF0D6
:10121000010815B10EB1012000E00020B8420AD04B
:10122000009715B10EB1012300E00023621C1BA141
:101230000320FFF753FB641C032CD5DB4046BDE8BD
:10124000FE83000064000020BCECB2E2B5BDCDA876
:10125000B5C0CAB9C4DCB3E5CDBBA3BA2564B8F642
:10126000CDA8B5C0CDACCAB1BCA4BBEE0000000097
:10127000CDA8B5C02564BCCCB5E7C6F7D7B4CCAC17
:10128000B2BBD2BBD6C2A3BA4B25645F313D256445
:101290002C204B25645F323D25640000CDA8B5C0ED
:1012A0002564BCCCB5E7C6F7D3EBBFAAB9D8D7B491
:1012B000CCACA3BABCCCB5E7C6F73D25642C20BFA7
:1012C000AAB9D83D25640000094910B5012008706D
:1012D00014210848FEF773FF064814211430FEF766
:1012E0006EFFBDE8104004A10220FFF7F7BA00002E
:1012F00000000020640000204750494FD7B4CCAC18
:10130000BCE0BFD8CFB5CDB3B3F5CABCBBAFCDEA57
:10131000B3C90000224810B5007800283FD0214909
:10132000142201F11400FEF731FF0020FFF708FD41
:101330001C4C20700120FFF703FD60700220FFF7B6
:10134000FFFCA0700020FFF723FDE0700120FFF7F5
:101350001FFD20710220FFF71BFD60710320FFF7C6
:1013600017FDA0710420FFF713FDE0710520FFF7C2
:101370000FFD20720020FFF72FFD60720120FFF7A4
:101380002BFDA0720220FFF727FDE072FFF7F2FCB1
:101390002073FFF7F5FC607300F0F2FD206110BDD3
:1013A00000000020640000201FB515A10320FFF7F6
:1013B00095FA194C19A1A07800906378227803203F
:1013C000FFF78CFA6079237AE279A1798DE80F0032
:1013D0002379E27819490320FFF780FAE07A009038
:1013E000A37A627A16A10320FFF778FA637B227B47
:1013F00004B01CA1BDE810400320FFF76FBA000045
:101400003D3D3D204750494FD7B4CCACCFEAC7E96A
:10141000203D3D3D0000000064000020CDA8B5C087
:10142000CAB9C4DC3A204B313D25642C204B323DF7
:1014300025642C204B333D2564000000A476000871
:10144000BFAAB9D8D7B4CCAC3A205357313D2564A4
:101450002C205357323D25642C205357333D2564AF
:1014600000000000C6E4CBFBD7B4CCAC3A20444328
:101470005F4354524C3D25642C2046414E5F5345FA
:101480004E3D25640000000070470000F8B50024C0
:10149000009490F824202546012A12D0012280F8D9
:1014A00024204A681F23072A0DD20668776B521E34
:1014B00002EB820293409F430B6893401F43776384
:1014C00019E00220F8BD06680D2A0AD2376BD21F38
:1014D00002EB820293409F430B6893401F433763A4
:1014E00009E0F76A0D3A02EB820293409F430B68D2
:1014F00093401F43F7620A68072306680A2A0AD343
:10150000F7680A3A02EB420293409F438B6893408C
:101510001F43F76008E0376902EB420293409F43A4
:101520008B6893401F4337610A68102A01D0112A43
:1015300020D1124B02689A4217D193681B0219D42A
:10154000936843F4000393600968102912D10C4991
:101550000C4A0968B1FBF2F101EB8101490000E09E
:10156000491E00910029FBD104E0816A41F020016D
:101570008162012480F824502046F8BD00240140F7
:101580003C00002040420F00704770B504460068E0
:1015900006684568A90625D5B10723D5A16AC906FD
:1015A00003D4A16A41F40071A1628168C1F3424190
:1015B000072910D1217B71B9416821F020014160D8
:1015C000A06A20F48070A062A06AC00403D4A06A5C
:1015D00040F00100A0622046FFF7D6FF21686FF0BF
:1015E0001200086028062ED570072CD5A06AC00608
:1015F00003D4A06A40F40050A06220688168C1F35F
:101600000231072909D04168490515D48168C1F321
:101610004241072910D1217B71B9416821F0800135
:101620004160A06A20F48050A062A06AC00503D483
:10163000A06A40F00100A0622046FFF725FF216864
:101640006FF00C00086068060CD5F0070AD0A06A9D
:1016500040F48030A062204600F096F821686FF0D8
:101660000100086070BD00002DE9F04104004FF05A
:1016700000057FD0A06A002628B9E66284F82460BD
:10168000204600F083F82046FFF74CF8A16AC9060F
:1016900000D420B1A06A40F01000A0626AE0A16A04
:1016A00021F4885141F00201A162334923688B4241
:1016B000E16904D1B1F5402F01D14FF40021277B1E
:1016C0004FF4807C41EA470261680A43A1686145A2
:1016D00008D0012906D0002194F814E0BEF1010FD2
:1016E00002D00AE06146F7E7C7B1A76A47F02007D2
:1016F000A762E76A47F00107E7625F6827F4694776
:101700000F435F60236899681C4F3940114399600B
:10171000A16861450BD0012909D00CE0DFF860E039
:10172000A7690EEB47370F4347F40061E5E7218ACD
:101730000D05A5F580152168CB6A23F470032B43B2
:10174000CB62216889680F4B1940914208D1E6624B
:10175000A16A21F0020141F00101A162BDE8F0811E
:10176000A06A20F0020040F01000A062E06A40F0A1
:101770000100E0620120F1E7003C0140FDF7E1FFDC
:1017800000E0FFFFFE0E1FFF7047000070B586B03F
:1017900000250646009501950295039500681D49B0
:1017A000884235D11C49886940F400708861886995
:1017B00000F400700490886940F004008861886932
:1017C000694600F004000490072000900320019077
:1017D000124800F0CFFA134C1148C4E900058020EC
:1017E000C4E90250400020618000C4E9050520469C
:1017F000E56100F0FDF908B1FFF7C6F83462002298
:1018000005211220666200F0EDFE122000F0DCFEE1
:1018100006B070BD002401400010024000080140E5
:1018200008000240D800002010B590F821100022D6
:10183000022905D00421816380F82020012010BDF9
:1018400001680B6823F00E030B6001680B6823F03E
:1018500001030B6090F84030C46B012101FA03F3DF
:10186000636080F8211080F82020104610BD000031
:101870002DE9F05F90F821100024022903D0042103
:101880008163012485E001680A6822F00E020A6083
:1018900001680A6822F001020A603F4E3E4FB2150D
:1018A000DFF8F4C0DFF8F090DFF8ECA0DFF8E8B084
:1018B000DFF8E4E00168783F13011502ACF1640C35
:1018C000A9F15009AAF13C0AABF1280BAEF1140EB4
:1018D0004FF48018B14227D9B9420ED0614512D0D9
:1018E00049451DD0514518D0594518D0714501D1F1
:1018F000424615E0294EB14201D1012210E0274EA7
:101900001436B14201D110220AE0244E2836B142E9
:1019100006D0224A3C32914201D11A4600E02A46C2
:101920001E49091F0A602BE0B94213D0614517D048
:10193000494522D051451DD059451DD0714501D191
:1019400042461AE0B14202D14FF0807215E0134EC8
:10195000B14201D1012210E0104E1436B14201D142
:1019600010220AE00D4E2836B14206D00B4A3C3216
:10197000914201D11A4600E02A46074980394A605F
:10198000012180F82110002180F82010416B01B165
:1019900088472046BDE8F09F8000024008040240CE
:1019A00090F82100704700002DE9F05FC16B0A68D4
:1019B00001680B68046C4FF0040808FA04F8844DC1
:1019C000844E854FDFF814C2DFF81492DFF814A2BA
:1019D000DFF814B2DFF814E218EA020F65D05FEA0C
:1019E000437862D50A68920603D40A6822F004029A
:1019F0000A60DFF8F0814FF48062016808F1140892
:101A000013011402414524D9A9420DD0B1420FD08F
:101A1000B9421AD0614515D0494515D0514501D17B
:101A2000120312E0594501D104220EE0714501D1A3
:101A300040220AE06D4D1435A94206D06B4A283287
:101A4000914201D11A4600E022466749091F0A6007
:101A500029E0A94213D0B14215D0B94220D0614546
:101A60001BD049451BD0514502D14FF4800217E0ED
:101A7000414502D14FF0806212E0594501D1042264
:101A80000EE0714501D140220AE0584D1435A942BB
:101A900006D0564A2832914201D11A4600E0224629
:101AA0004B4908394A60C16A71E04FF0020808FAF0
:101AB00004F818EA020F70D05FEA83786DD50A68DF
:101AC000920606D40A6822F00A020A60012180F810
:101AD0002110DFF810814FF40072016808F114083A
:101AE00013011402414524D9A9420DD0B1420FD0AF
:101AF000B9421AD0614515D0494515D0514501D19B
:101B0000120312E0594501D102220EE0714501D1C4
:101B100020220AE0354D1435A94206D0334A283236
:101B2000914201D11A4600E022462F49091F0A605E
:101B300029E0A94213D0B14215D0B94220D0614565
:101B40001BD049451BD0514502D14FF4001217E07C
:101B5000414502D14FF0007212E0594501D10222F5
:101B60000EE0714501D120220AE0204D1435A94232
:101B700006D01E4A2832914201D11A4600E0224680
:101B8000134908394A60002180F82010816A002931
:101B90001CD0BDE8F05F0847FFE70825A5401542C7
:101BA00014D01A0712D50A6822F00E020A6090F8C3
:101BB0004020C36B012101FA02F25A60816380F870
:101BC0002110002180F82010016BE0E7BDE8F09FB4
:101BD000080002401C000240300002404400024065
:101BE000580002406C000240080402401C040240FD
:101BF00030B560B11A4B026814219A4209D2194BD0
:101C00001344B3FBF1F18900016417490AE0012094
:101C100030BD134B5B421344B3FBF1F18900016407
:101C20000F490839C163022180F82110136843F677
:101C3000F0718B43F0E901142143D0E902452C43B4
:101C400021430469214344692143846921431943A1
:101C5000116000214163012242770177084630BDBF
:101C600008040240F8FFFDBF0000024070B50446C2
:101C700000F086F90546601C02D004480078044450
:101C800000F07EF9401BA042FAD370BD3000002066
:101C900010B50446FEF7E6FEB4F5005F2AD00EDC70
:101CA000202C21D04FF4807118488C4217D0411558
:101CB0008C4226D100F05AF9014600200BE0B4F521
:101CC000804F17D04FF400418C421AD1104800F0D9
:101CD0004DF901460220BDE8104003F055BE00F06A
:101CE00045F901460120F6E7BDE8104009A10220B0
:101CF000FEF7F4BD22460BA10220BDE81040FEF71E
:101D0000EDBD22460EA10120F7E70000000C0140C6
:101D10000008014044435F4354524CD6D0B6CFB480
:101D2000A5B7A200B0B4BCFCD6D0B6CFB4A5B7A2BC
:101D30003A2050696E3D307825303458000000005C
:101D4000CEB4D6AA4750494FD6D0B6CF3A20506924
:101D50006E3D30782530345800000000044910B53D
:101D60000A68024202D00860FFF792FF10BD00002F
:101D7000140401402DE9F84FDFF8C8910024A9F1BF
:101D8000040B23460F2709F1040AABF1040ED1E03E
:101D90000125A54006EA0502AA4276D1DFF8A8C1CE
:101DA0004E68A6EB0C0866452BD00DDC032E34D014
:101DB00005DC36B3012E19D0022E2FD11BE0112ED7
:101DC00016D0122E2AD119E0B8F5881F19D006DCDA
:101DD000B8F5803F15D0B8F5801F1FD111E0B8F5D8
:101DE000001F0ED0B8F5041F18D10AE0CB6815E02B
:101DF000CB681B1D12E0CB6808330FE0CB680C33B7
:101E00000CE08B682BB1012B4FF0080303D0456128
:101E100004E0042302E0056100E00023FF2A01D86A
:101E2000064601E000F104064FEA840501D9A5F158
:101E30002005D6F8008007FA05FC28EA0C0803FA0A
:101E400005F548EA0508C6F800804D68ED0070D534
:101E50003E4DAE6946F00106AE61AD6924F0030661
:101E600005F0010500953A4D06EB050CDCF808502D
:101E7000A607360F07FA06F825EA0805DFF8D4802A
:101E8000404503D14FF0000825E052E0DFF8C8805C
:101E9000404502D14FF001081DE0DFF8C080404509
:101EA00002D14FF0020816E0DFF8B480404502D1BD
:101EB0004FF003080FE0DFF8AC80404502D14FF04F
:101EC000040808E0DFF8A080404502D14FF0050883
:101ED00001E04FF0060808FA06F848EA0508CCF8D1
:101EE00008804D68D9F80060ED024D4601D51643D3
:101EF00000E096432E604D68DAF80060AD0255466A
:101F000001D5164300E096432E604D68DBF8006073
:101F1000AD035D4601D5164300E096432E604D6843
:101F2000DEF80060ED03754601D5164300E09643E8
:101F30002E60641C0A681646E2407FF429AFBDE8B3
:101F4000F88F00000804014000001110001002404A
:101F50000000014000080140000C01400010014059
:101F60000014014000180140001C01408068084036
:101F700000D0012070470AB1016170470904FBE7F6
:101F800001488068704700003000002070477047AB
:101F90002DE9F041016804464A694E6890F83E0018
:101FA0000025D743FA050BD4F243D20508D46FF4C9
:101FB000807201254A6121680A6842F400420A6081
:101FC000B90508D4F143C90505D422686FF400713E
:101FD00045F002055161790525D4F143C90522D4A4
:101FE000638D94F83D10226B202808D13BB921293C
:101FF00010D029290ED0282901D1212A0AD02268FF
:102000006FF48061516145F00405102806D0402826
:1020100004D008E0204601F0C1FF04E02068016818
:1020200041F400710160380508D4F043C00505D4BF
:1020300021686FF4006045F008054861002D07D065
:10204000206C284320642046BDE8F04101F00ABC22
:10205000BDE8F0812DE9F047026800215368C66AA7
:1020600090F83E4090F83D50102C12D0402C10D0EB
:10207000046C002C7DD05469E443A6077AD4DE4377
:10208000B60577D4036C03B19169BDE8F04701F060
:1020900061BF976951694FF42A0CC9435FEAC1785F
:1020A0004FF02A4904D066452AD04E4528D010E08A
:1020B000DE43B6050DD4C16A614501D1012103E0BB
:1020C000C16A494501D10821C162BDE8F04701F06C
:1020D000A7BE0E0716D4DE43B60513D4416CC9B2B1
:1020E0001161416B09B1896A29B9816B002907D057
:1020F000896A002904D00068416841F400614160A8
:10210000BDE8F0878E0706D4DE43B60503D4BDE8EC
:10211000F04701F0D9BDFE43526876074FEA0252FC
:102120001DD4002AECDB0A0608D4DA43520505D494
:10213000490705D5BDE8F04701F06ABD4907DFD47E
:10214000D9438905DCD4212D05D0402CD8D1BDE858
:10215000F04701F0ABBEBDE8F04701F017BD002A23
:10216000CEDB4A060BD4DA43520508D4490708D51A
:1021700001E00DE00EE0BDE8F04701F08DBC49073D
:10218000BED4D9438905BBD4BDE8F04701F016BCE5
:10219000916970E7E10606D4D943890503D4BDE807
:1021A000F04701F043BF2821212D27D0292D25D02C
:1021B000650655D4DD436D0552D4640752D590F8B9
:1021C0003D30448D002C9BD01269446A2270426AD3
:1021D000521C4262428D521E4285428D002A8FD18E
:1021E0002A2B8DD10268536823F480635360222226
:1021F000026380F83D1000F04FF981E7250623D4F3
:10220000DD436D0520D4640720D590F83D30448D22
:10221000002CF2D0446A24781461426A521C426253
:10222000428D521E4285428D002AE6D1292BE4D1EF
:102230000268536823F4806353602122026380F8AC
:102240003D1000F02AF95BE76107D6D4D943890530
:10225000D3D4418D0029D0D0416A097811610AE0B8
:102260006107CAD4D9438905C7D4418D0029C4D098
:102270001169426A1170416A491C4162418D491ECF
:1022800041853DE77047000070B5040025D094F803
:102290003D00002520B984F83C50204600F0BEF8EF
:1022A000242084F83D002068016821F001010160CC
:1022B0002068016841F4004101602068016821F450
:1022C0000041016000F0DCFA4D4A6168914201D89A
:1022D0004C4900E04C49884201D2012070BD4B4975
:1022E0002368B0FBF1F15E6826F03F060E435E60A6
:1022F0006368934206D94FF4967359434FF47A7347
:10230000B1FBF3F12368491C1E6A26F03F063143F6
:1023100019626168914210D84900401EB0FBF1F289
:10232000521CC2F30B02042A01D2042022E0B0FBAB
:10233000F1F0401CC0F30B001CE0A268F2B301EB0B
:10234000C10303EB0116431EB3FBF6F35B1C43F41E
:1023500080431B0549D092B301EBC10202EB01118E
:10236000401EB0FBF1F0401CC0F30B0040F4804075
:1023700040F400402168CA694CF6FF739A43104349
:10238000C861D4E9071001432068026822F0C00246
:1023900011430160D4E9030101432068826848F2D7
:1023A000FF339A4311438160D4E905010843216852
:1023B000CA6822F0FF021043C86001E00EE016E098
:1023C0002068016841F0010101602564202084F843
:1023D0003D00256384F83E50002070BD01EB4106AE
:1023E000431EB3FBF6F35B1CB3E70120C2E701EB2E
:1023F0004101401EB0FBF1F0401CC0F30B00B7E7F9
:10240000A086010080841E0000093D0040420F00AC
:1024100070477047704770477047000010B586B02E
:1024200000210091019102910391006817498842AF
:102430002AD1174CA06940F00800A061A069694644
:1024400000F008000490C0200090122001900320AA
:1024500003901048FFF78EFCE06940F40010E06143
:10246000E069002200F40010049005211F2000F014
:10247000B9F81F2000F0A8F800220521202000F064
:10248000B1F8202000F0A0F806B010BD00540040C4
:1024900000100240000C01407047704770B5040006
:1024A00013D021684CF6CC400860216845F25550A5
:1024B0000860D4E9000141602168A0688860FFF7E6
:1024C0005FFD054641F23C360DE0012070BD00BFC6
:1024D000FFF756FD401BB04205D92068C068800751
:1024E00001D0032070BD2068C0688007F0D121684A
:1024F0004AF6AA200860002070BD00684AF6AA21AA
:102500000160002070470000024881680278114491
:102510008160704730000020074810B5016841F025
:1025200010010160032000F07DF8012000F006F8A2
:1025300000F024F8002010BD0020024070B50D4DC1
:1025400004464FF47A712878B1FBF0F00A49096823
:10255000B1FBF0F000F078FC48B9102C07D2002253
:102560002146501E00F03EF800206C6070BD012036
:1025700070BD0000300000203C000020104808B56D
:10258000816941F001018161816901F001010091DE
:10259000C16941F08051C161C069002200F08050E2
:1025A00000900421012000F01DF8012000F00CF83B
:1025B0000448416821F0E06141F00071416008BDCC
:1025C0000010024000000140002809DB00F01F025B
:1025D000012191404009800000F1E020C0F8001185
:1025E00070470000F0B40E4B1B680C46C3F3022387
:1025F000C3F10705042D00D90425191D072901D2AF
:10260000002300E0DB1E012606FA05F1491E2140E9
:1026100099409E40761E16403143F0BC03F0B8BF8F
:102620000CED00E0064900F0070208684FF6FF03D2
:10263000184040EA0220034A104308607047000037
:102640000CED00E00000FA057047000010B5054CE5
:102650002068C00304D5FFF7F7FF4FF480302060F7
:1026600010BD0000140401402DE9F8430546007830
:10267000354CC00754D0E0690026C00008D4E0699A
:1026800040F08050E061E069012600F08050009049
:102690002E480168C90512D40168804641F4807152
:1026A0000160FFF76DFC074605E000BFFFF768FC1F
:1026B000C01B642823D8D8F80000C005F6D5206ACE
:1026C00010F4407021D0A98801F4407181421CD0DF
:1026D000206A1F49012220F440700A6000220A602B
:1026E0002062C00711D0FFF74BFC074641F2883843
:1026F00008E000BFFFF744FCC11B414502D903209D
:10270000BDE8F883206A8007F4D5206A696820F460
:102710004070084320621EB1E06920F08050E06103
:102720002878800705D56068A96820F440400843F0
:1027300060602878C00605D56068696920F480006B
:10274000084360600020DBE700100240007000409A
:10275000400442422DE9F0470F46050061D0434E48
:10276000306800F00700B84209D2306820F0070056
:1027700038433060306800F00700B84251D1286813
:102780003B4C810712D5400703D5606840F4E060F8
:1027900060602878000703D5606840F4605060608E
:1027A0006068A96820F0F000084360602878C007DE
:1027B00028D06868012810D02168022810D0890725
:1027C00000292EDA616821F0030101436160FFF7FF
:1027D000D7FB804641F288390DE021688903EFE795
:1027E0008901EDE7FFF7CCFBA0EB0801494502D9D1
:1027F0000320BDE8F0876068696800F00C00B0EB6A
:10280000810FEFD1306800F00700B8420BD9306873
:1028100020F0070038433060306800F00700B8420D
:1028200001D00120E5E72878400705D56068E96810
:1028300020F4E060084360602878000706D56068EF
:10284000296920F4605040EAC100606000F038F867
:102850006168084AC1F30311515CC8400649086029
:1028600006480068FFF76AFE0020C2E70020024029
:1028700000100240327600083C00002034000020A6
:102880000448054900684968044AC1F30221515CC3
:10289000C84070473C00002000100240427600080B
:1028A0000448054900684968044AC1F3C221515CE3
:1028B000C84070473C0000200010024042760008EB
:1028C0000E4A51680E4801F00C03042B11D0082B5E
:1028D0000FD10C48C1F38343C903C05C0AD55168CA
:1028E000084AC1F34041921E515C054A5043B0FB77
:1028F000F1F070470449484370470000001002405F
:1029000000127A002276000800093D002DE9F84FF8
:10291000040070D02078C04DC00749D06868C0F36B
:102920008100012807D06868C0F38100022809D11E
:102930006868C00306D52868800339D56068002818
:10294000E7D035E06068B0F5803F0BD010B1B0F54E
:10295000A02F11D0286820F480302860286820F447
:10296000802002E0286840F480302860606890B1E0
:10297000FFF706FB06460AE0286840F4802028603E
:10298000F0E700BFFFF7FCFA801B642873D82868C3
:102990008003F7D50CE0FFF7F3FA064605E000BF29
:1029A000FFF7EEFA801B6428F0D828688003F7D47C
:1029B00020789A4E80074FF001094FF0000839D572
:1029C000686810F00C0F07D06868C0F38100022817
:1029D00009D16868C00306D42868800714D5206927
:1029E000012808D110E02069B0B1C6F80090FFF7C7
:1029F000C7FA074605E00AE1FFF7C2FAC01B022842
:102A0000C4D828688007F7D52868616920F0F800E5
:102A100040EAC10028600DE0C6F80080FFF7B0FA78
:102A2000074604E0FFF7ACFAC01B022823D8286849
:102A30008007F7D4207800072CD57948A169D9B14F
:102A4000C0F80090FFF79CFA074604E0FFF798FAF9
:102A5000C01B02280FD8686A8007F7D571484FF469
:102A6000FA510068B0FBF1F0009000BF0098411EE1
:102A70000091FAD20EE080E0C0F80080FFF780FA03
:102A8000074604E0FFF77CFAC01B022875D8686A85
:102A90008007F7D42078400760D5E8690027C00098
:102AA00008D4E86940F08050E861E869012700F047
:102AB000805000905C480168C90513D401688346C2
:102AC00041F480710160FFF75BFA824606E000BFC7
:102AD000FFF756FAA0EB0A0064284ED8DBF8000096
:102AE000C005F5D5E06801280AD008B1052813D043
:102AF000286A20F001002862286A20F0040002E021
:102B0000286A40F001002862E06841F2883B98B1F1
:102B1000FFF736FA82460BE0286A40F0040028628C
:102B2000EEE700BFFFF72CFAA0EB0A0159455AD88F
:102B3000286A8007F6D50CE0FFF722FA824605E006
:102B4000FFF71EFAA0EB0A0159454CD8286A800706
:102B5000F6D41FB1E86920F08050E861E06988B3DD
:102B60006968C1F38101022944D00228C6F8608057
:102B700004D0FFF705FA044638E034E0FFF700FA26
:102B8000074604E0FFF7FCF9C01B02282BD8286891
:102B90008001F7D4206AB0F5803F05D16868A1684C
:102BA00020F4003008436860D4E9080108436968EC
:102BB00021F4741108436860C6F86090FFF7E0F9EB
:102BC000044606E025E000BFFFF7DAF9001B022803
:102BD00009D828688001F7D51BE000BFFFF7D0F9BE
:102BE000001B022802D90320BDE8F88F2868800165
:102BF000F4D40EE00128F7D06868226A00F480312E
:102C0000914204D1616A00F47010884201D0012021
:102C1000EAE70020E8E7000000100240000042421E
:102C2000800442423C0000200070004070470000D9
:102C300038B50446006842688168C9434B0606D52A
:102C4000CB0704D1D3435B0601D4216C05E08B078D
:102C500008D4D3431B0605D4616C01B02046BDE8FF
:102C6000304008478B0601D54B0646D4D3439B061C
:102C700043D44B060AD494F85130032B3ED0636DF5
:102C800043F004036365C36883680093890609D42D
:102C9000616D41F00101616581680091016821F079
:102CA00040010160606D002827D02068416821F054
:102CB000E0014160012084F85100900722D0206893
:102CC000416821F003014160104DE06C40B1456363
:102CD000E06CFEF7CDFD18B1606D40F0400060651E
:102CE000A06C002809D04563A06CFEF7C1FD002848
:102CF00003D0606D40F04000606538BDC1688068F9
:102D0000009038BD2046FFF791FF38BD815F000875
:102D100070B5040009D0606A002540B12561656185
:102D2000A56294F8510040B10CE0012070BD6068CC
:102D3000B0F5827FF4D0E561F2E784F85050204688
:102D400000F040F8022084F851002068016821F06A
:102D500040010160A088218900F4827001F40441DF
:102D60000843A18901F400610843217C01F00201BC
:102D70000843217D01F001010843218B01F400711A
:102D80000843217F01F03801084394F8201001F036
:102D900080010843218D01F4005108432168086037
:102DA000A069042101EA1040216848602068C169D7
:102DB00021F40061C1616565012084F851000020A3
:102DC00070BD000030B585B00024009401940294D9
:102DD00003940068194988422DD11948C16941F40A
:102DE0008041C161C16901F480410491816941F070
:102DF000080181618069134D00F0080004904FF4D0
:102E0000204000900220019003200390694628464C
:102E1000FEF7B0FF4FF48040CDE900046946284634
:102E20000294FEF7A7FF002211462420FFF7DAFBE9
:102E30002420FFF7C9FB05B030BD0000003800407A
:102E400000100240000C014010B5401EB0F1807F20
:102E500001D3012010BD4FF0E02460610F21601705
:102E600003F096FB0020A06107202061002010BD28
:102E70007047704770B590F83C20012A2CD001248F
:102E800080F83C40022280F83D2003685A689D6823
:102E900022F070060A6832435A60104B02689A4268
:102EA0000ED00F4B9A420BD0B2F1804F08D00D4B91
:102EB0009A4205D00C4B9A4202D00C4B9A4204D154
:102EC000496825F080031943916080F83D40002156
:102ED00080F83C10084670BD022070BD002C0140F7
:102EE000003401400004004000080040000C004095
:102EF00010B5040003D094F83D0010B107E00120A4
:102F000010BD002084F83C00204600F01FF802208D
:102F100084F83D00211D206803F07EF8012084F82C
:102F2000460084F83E0084F83F0084F8400084F8AE
:102F3000410084F8420084F8430084F8440084F897
:102F4000450084F83D00002010BD000008B5006871
:102F50000B49884212D10B48C16941F00201C1619D
:102F6000C069002200F00200009011461D20FFF70A
:102F700039FBBDE808401D20FFF726BB08BD000057
:102F8000000400400010024070B5044690F83C0078
:102F90000025012817D0012684F83C60022084F81F
:102FA0003D002068826822F0770222F47F4282602E
:102FB0000868502838D00DDC20284FD005DC90B3AD
:102FC000102811D14AE0022070BD302846D0402898
:102FD0000AD13BE060282FD070280DD0B0F5805F7B
:102FE00003D0B0F5005F12D0012584F83D600020C9
:102FF00084F83C00284670BDCB68D1E901212068E7
:1030000003F058F82068816841F0770109E0CB6847
:10301000D1E90121206803F04DF82068816841F46E
:1030200080418160E1E719E0CA684968206803F0DF
:1030300015F95021206806E0CA684968206803F045
:103040001EF96021206803F03FF8CEE7CA6849689E
:10305000206803F003F940212068F4E72268014664
:103060001046F0E770472DE9F04104460068C66855
:1030700005694FF00007A90713D5B10711D5F91E4F
:10308000016101202077206880698007204602D0F6
:10309000FFF7E8FF04E000F0A5F8204600F037F95C
:1030A0002777680716D5700714D521686FF00400DC
:1030B0000861022020772068806910F4407F204654
:1030C00002D0FFF7CFFF04E000F08CF8204600F0BC
:1030D0001EF92777280715D5300713D521686FF01B
:1030E00008000861042020772068C0698007204616
:1030F00002D0FFF7B7FF04E000F074F8204600F0BC
:1031000006F92777E80616D5F00614D521686FF082
:1031100010000861082020772068C06910F4407F03
:10312000204602D0FFF79EFF04E000F05BF8204647
:1031300000F0EDF82777E80708D0F00706D02168FF
:103140006FF001000861204600F0E2F8280608D57B
:10315000300606D521686FF0800008612046FFF731
:1031600087FE680608D5700606D521686FF0400016
:103170000861204600F0CDF8A8060AD5B00608D5AB
:1031800021686FF0200008612046BDE8F041FFF79C
:1031900070BEBDE8F081000000B585B0002100914F
:1031A00001910291039100680B49884211D10B48AB
:1031B000816941F0040181618069694600F0040081
:1031C0000490402000900220019003900448FEF7F4
:1031D000D1FD05B000BD0000000400400010024019
:1031E00000080140704770B5044690F83C00002686
:1031F0000D4601280FD0012084F83C006AB1042A52
:103200001DD0082A2FD00C2A3FD00126002084F898
:103210003C00304670BD022070BD206802F05CFFAB
:103220002068816941F0080181612068816921F08D
:1032300004018161206881692A69114311E02068D5
:1032400002F07AFF2068816941F4006181612068A1
:10325000816921F480618161206881692A6941EA7C
:1032600002218161D2E7206802F09CFF2068C169D9
:1032700041F00801C1612068C16921F00401C16108
:103280002068C1692A69114311E0206802F0BEFF7D
:103290002068C16941F40061C1612068C16921F4FD
:1032A0008061C1612068C1692A6941EA0221C16166
:1032B000ACE710B5040003D094F83D0010B107E06E
:1032C000012010BD002084F83C00204600F01EF8CC
:1032D000022084F83D00211D206802F09DFE01209F
:1032E00084F8460084F83E0084F83F0084F84000EB
:1032F00084F8410084F8420084F8430084F84400D4
:1033000084F8450084F83D00002010BD70477047E8
:103310007047704770477047F8B501680446086801
:10332000CA684B6910F00F0F4FF0000559D003F039
:10333000010602F49077374365D0C10705D0D10567
:1033400003D5616C41F001016164410705D5D907DE
:1033500003D0616C41F002016164810705D5D90792
:1033600003D0616C41F004016164010707D502F0EC
:103370002001314303D0616C41F008016164616C4C
:1033800000293AD0800604D5900602D5204602F0E6
:10339000B7FF20684069616CC0F38010090700D452
:1033A00060B3204602F085FF20684069400621D5C1
:1033B0002068143050E8001F21F0400140E800125E
:1033C000002AF5D1E06BA8B16D494163E06BFEF7CF
:1033D0004FFA002811D0E06B416B01B0BDE8F0401E
:1033E000084783060FD593060DD52046BDE8F84063
:1033F00002F086BF2046FFF78EFFF8BD2046FFF79C
:103400008AFF6564F8BD266B2023012E7CD1C60699
:103410007AD5D60678D508684868009048694FF094
:103420000206400640D5E16B086840680004000CC5
:10343000E8D0A28D8242E5D9E085886920282DD088
:1034400020680C3050E8001F21F4807140E8001221
:10345000002AF5D12068143050E8001F21F0010146
:1034600040E80012002AF5D12068143050E8001F0F
:1034700021F0400140E80012002AF5D184F84230E2
:10348000256320680C3050E8001F21F0100140E84F
:103490000012002AF5D1E06BFEF7C6F96663A08D35
:1034A000E18D401A81B22AE0A08DE18D401A81B2EF
:1034B000E08D0028A6D00029A4D022680C3252E862
:1034C000000F20F4907042E80007002FF5D120682B
:1034D000143050E8002F22F0010240E80027002FAE
:1034E000F5D184F84230256320680C3050E8002F75
:1034F00022F0100240E80023002BF5D1666320463D
:10350000FFF708FFF8BDFFE705062BD5150629D5FF
:1035100094F841002128F5D1A068B0F5805F01D171
:103520002069B0B1206A411C21622168007848609E
:10353000E08C401E0004000CE084E3D12068C168E8
:1035400021F08001C1602068C16841F04001C16084
:10355000D8E7206A0088C0F308004860206A801C11
:103560002062E5E74006CDD55006CBD5CA68204697
:1035700022F04002CA6084F8413000F0FEF8C1E752
:10358000A362000870B5040004D094F8410000253F
:1035900010B106E0012070BD84F84050204600F0D4
:1035A00023F8242084F841002068C16821F40051E8
:1035B000C160204602F006FF2068016921F49041B5
:1035C00001612068416921F02A0141612068C168D8
:1035D00041F40051C1606564202084F8410084F802
:1035E00042006563002070BD70B586B00024009471
:1035F00001940294039403683248314E022103225D
:103600000515B34226D1836943F4804383618369FE
:1036100003F480430493836943F004038361806966
:10362000294E00F0040004900802CDE90001039245
:1036300069463046FEF79EFBCDE9005469463046A8
:103640000294FEF797FB002201212520FEF7CAFF16
:10365000252031E01D4EB34230D1C36943F48023AD
:10366000C361C36903F480230493836943F01003A7
:1036700083618069CDE9005100F01000CDE903209D
:10368000134D69462846FEF775FBE814CDE90004A2
:10369000694628460294FEF76DFB0E48416821F00A
:1036A000300141F0E06141F0100141600022012150
:1036B0002720FEF797FF2720FEF786FF06B070BD94
:1036C000003801400010024000080140004800405E
:1036D000001001400000014070472DE9F843044606
:1036E00090F84100984616460D46202802D0022048
:1036F000BDE8F88385B17EB100206064212084F8A4
:103700004100FEF73DFCA6848146E684A0682027A0
:10371000B0F5805F02D003E00120E9E7206910B135
:103720002E4600250EE000260CE08021204602F007
:10373000A5FEA8B9C6B116F8010B21684860E08C57
:10374000401EE084E08C4B464FF00002CDF8008034
:103750000028EAD14FF04001204602F08FFE40B130
:1037600084F841700320C3E735F8020BC0F308006A
:10377000E3E784F841700020BAE77047FEE70000F5
:103780000148FEF705BC00001C0100200148FEF7BF
:1037900061BC00001C01002038B5406A002190F88F
:1037A0003D202B4B46F2A8141B68B3FBF4F3C3EB8C
:1037B000C30303EB830300933BB15B1E00930368D9
:1037C0001B689B0505D5009BF6E7036C43F02003BF
:1037D0000364436B03B19962836B03B1996203681D
:1037E0001C6824F480641C604185436B03B15963F9
:1037F000836B03B1596303681C6824F001041C60E7
:1038000090F83D402023602C0BD0282434EA02029B
:103810000FD080F83D3080F83E1000BFFEF732FD3B
:1038200038BD80F83D3080F83E100164FEF7AEFBF5
:1038300038BD0268136843F001031360026813681F
:1038400043F480631360016380F83D40E6E70000C5
:103850003C00002000684169C943090601D40021E9
:103860000161704770B5044690F83D0094F83E1031
:10387000102901D0402906D1222804D121680A68E4
:1038800022F400620A60282131EA00024FF00005AC
:103890004FF0200626D021684968090505D4602824
:1038A00003D084F83D6084F83E5025632068416869
:1038B000090537D5416821F400614160606B90F8DB
:1038C00021203C49012A11D04163606BFDF7D0FFF4
:1038D00038B32068016821F00101016084F83D607F
:1038E000606B1CE0256384F83D10DFE7A06B41634B
:1038F000A06BFDF7BDFFA0B120684169C94349062F
:1039000005D40069616A0870606A401C60622068C2
:10391000016821F00101016084F83D60A06B416BFA
:10392000884710E094F83D10602910D04169C943E0
:10393000490605D40069616A0870606A401C6062CB
:103940002046FEF79FFC206CC1071CD115E084F8CF
:103950003D6025644169C943490605D40069616A2F
:103960000870606A401C60622068016821F00101F3
:1039700001602046FEF70AFBE5E7810703D4410713
:1039800001D4000704D52068416821F4E06141605A
:1039900094F83D00216C49070BD5282809D1064829
:1039A000E062256384F83D6084F83E502046FEF7CF
:1039B0002FFD70BD993700080000FFFF10B5C26AE7
:1039C000438D0168042B06D0438D032B08D0438D13
:1039D000022B1DD012E04A6822F480624A600CE09B
:1039E0004B6823F480634B60042A06D0022A04D07B
:1039F00001680A6822F480620A6001680969426A03
:103A00001170416A491C4162418D491E418510BDBA
:103A1000012A34D0102A32D0042A34D0022A32D0DB
:103A20000B6843F400730B6001680969436A1970FD
:103A3000416A491C4162438D5B1E438503681B69D3
:103A40000B70416A491C4162418D491E41850168E4
:103A50004B6823F440734B60202180F83D1090F8B0
:103A60003E300021402B80F83E1010D0082A02D0B2
:103A7000202A00D012210163FEF7CBFC10BD0B6899
:103A800023F48063CFE70B6843F48063CBE70163E3
:103A9000FEF7C1FC10BD000038B590F83D1022299A
:103AA00010D1C36A418D03290DD901680969426AA1
:103AB0001170416A491C4162418D491E4185418D09
:103AC000032906D038BDC26A022A02D0012906D0D5
:103AD00029B10068416821F48061416038BD2A4AFB
:103AE00046F2A81400211268B2FBF4F202EB820243
:103AF000009202682024009D6D1E009526D0156856
:103B0000AD05F8D4156825F4806515600268556820
:103B100025F4E065556002681269456A2A70426AB8
:103B2000521C4262428D521E428580F83D4090F800
:103B30003E2080F83E10402A21D0082B02D0202BB6
:103B400000D012210163FEF764FC38BD036C43F022
:103B500020030364536823F4E0635360026812692E
:103B6000436A1A70426A521C4262428D521E42855A
:103B700080F83D4080F83E10FEF784FB38BD0163BD
:103B8000FEF749FC38BD00003C00002010B5C26AB9
:103B900090F83D1021290BD1418D51B1416A026845
:103BA00009781161416A491C4162418D491E418574
:103BB00010BD20230021082A13D0202A11D012F58D
:103BC000803F0ED00268546824F4E06454601122EF
:103BD000026380F83E1080F83D3000BFFEF71AFC0B
:103BE00010BD0268546824F4E064546002681468EC
:103BF00044F400741460016380F83D3090F83E2076
:103C000080F83E10402AE9D1FEF706FC10BD000006
:103C100010B590F83D1090F83E30C26A048DB4B1F2
:103C2000212903D0402B11D122290FD1418DE1B39D
:103C300090F83E10402942D0416A0268097811612B
:103C4000416A491C4162418D491E418510BD2129AF
:103C5000E8D120230021082A13D0202A11D012F500
:103C6000803F0ED00268546824F4E064546011224E
:103C7000026380F83E1080F83D3000BFFEF7CAFBBB
:103C800010BD0268546824F4E0645460026814684B
:103C900044F400741460016380F83D3090F83E20D5
:103CA00080F83E10402AE9D100E002E0FEF7B4FBC4
:103CB00010BD0068416821F48061416010BDBDE81D
:103CC000104000F0F3B8000078B590F83E50C26A9A
:103CD000046B90F83D6000230168222E73D1066DBD
:103CE0000EB9402D6FD0056D1DB90569B5F5404F72
:103CF0001BD0458D95B3468D484D012E20D0448D67
:103D0000022C4DD00C6844F480640C6001684C684F
:103D1000240579D5AA4273D0012A71D0082A6FD020
:103D2000102A6DD0202A6BD06EE04A698A69009211
:103D30000A6842F480720A60016D491C016578BD11
:103D4000AA4214D10A6822F480620A6001684A68B3
:103D5000120504D50A6822F4806217E0FFE74A6979
:103D60008A6900920A6842F400720A6050E0082AE8
:103D700010D0202A0ED0122C0AD0042A03D0022AF6
:103D800001D0102AE6D10A6842F480620A603BE062
:103D9000012ADFD00A6822F480620A600168DEE747
:103DA000042A11D0022A0FD0102A0DD00C6844F436
:103DB00000640C6001684C698C6900940C6824F400
:103DC00080640C6008E025E00C6844F480640C60BA
:103DD00001684C698969009101684C68240517D510
:103DE000AA4207D0012A05D0082A03D0102A01D000
:103DF000202A0DD14A6842F480524A6008E0FFE769
:103E00004A6842F480524A6001684A6989690091AF
:103E1000036578BD48698869009078BD0000FFFFA0
:103E200090F83E10402910D00169B1F5804F19D0AB
:103E3000016DA9B3016D012910D1416C5FF0F10250
:103E400001F4407142EAD11106E0016D0029416C94
:103E500005D0C9B241F0010100680161704701F06D
:103E6000FE01F9E790F83D102129416C09D0C9B253
:103E700041F0010102681161416B29B1896A49B9B8
:103E800002E001F0FE01F5E7816B0029E6D0896AC6
:103E90000029E3D00068416841F400614160704747
:103EA000FFE7416CF02201F44071CBE710B590F8C8
:103EB0003D10026D4AB1026D012A14D0026D022A32
:103EC00016D0BDE81040FFF7C5BCC16C0129816C5C
:103ED00002D0C1F3072108E00268C9B21161016D87
:103EE000891C016510BD816CC9B20268116123E0B3
:103EF00022291CD0428D0AB1212920D0428D002ACE
:103F0000F0D12129EED101684A6822F4E0624A60CA
:103F100001680A6842F400720A60002101632022ED
:103F200080F83D2080F83E10FEF776FA10BD01685B
:103F30000A6842F480720A60016D491CD1E7416A47
:103F4000026809781161416A491C4162418D491E2C
:103F5000418510BD38B50C4690F83D20002128253C
:103F6000954302680B4605D051699169009180F82C
:103F70003C3038BD556825F480655560E2435407F0
:103F800000D50121120601D5828900E0028B80F85C
:103F90003C3092B2FDF7FBFF38BD00002DE9F04147
:103FA00090F83D300446C26A002120261E4F00686A
:103FB0006FF48065082A01D0202A01D1282B04D073
:103FC000212B17D04561BDE8F081E762426822F4F9
:103FD000E0624260206845612068026822F48062E5
:103FE0000260216384F83D6084F83E102046FEF7AD
:103FF0000FFAE8E7E7622122226384F83D6084F843
:104000003E10416821F4E06141602068456120680C
:10401000016821F4806101602046FFF71BFC204607
:10402000FEF73BFACFE700000000FFFFF8B590F87D
:104030003D6004460068416821F4E0614160206809
:10404000002541690091016841F00101016020688B
:10405000016821F48061016020684168090520D56C
:10406000474F222E48D02A2E46D0616B09684968F6
:104070006185618D19B1216C41F0040121644168B1
:1040800021F400614160606BFDF78AFC012808D0D3
:10409000606B4763606BFDF7EBFB10B1606B416BCE
:1040A0008847608D08B320684169C943490708D42F
:1040B0000069616A0870606A401C6062608D401E21
:1040C000608520684169C943490608D40069616A6E
:1040D0000870606A401C6062608D401E6085608D63
:1040E00018B1206C40F004002064206C00B320461E
:1040F000BDE8F840FFF7B6BBA16B09684968618568
:10410000618D19B1216C41F004012164416821F4F1
:1041100000614160A06BFDF743FC0128C1D0A06B9A
:104120004763A06BFDF7A4FB0028BAD0A06BB6E7ED
:104130002A2E06D12563282084F83D002046FEF76C
:10414000ABF994F83D10202028290DD0216B2229AD
:1041500001D0222E07D1256384F83D0084F83E501B
:104160002046FEF799F9F8BD0649E162256384F817
:104170003D0084F83E502046FEF74AF9F8BD0000A5
:10418000993700080000FFFF3EB500241B4800944B
:1041900001941949029401608915816004730475C2
:1041A000032505614FF460214460C161FDF75CFAAD
:1041B00008B1FCF7E9FB009401240520CDE901409A
:1041C00069460E48FDF762F908B1FCF7DDFB009483
:1041D0000224694609480194FDF758F908B1FCF733
:1041E000D3FB69460548CDE90045FDF74FF90028A6
:1041F00001D0FCF7C9FB3EBD00240140A80000200F
:10420000094808B5416941F0010141614069002256
:1042100000F00100009005210B20FEF7E3F9BDE856
:1042200008400B20FEF7D0B9001002402DE9F04FF6
:1042300085B000266C480096019602960396816927
:1042400041F010018161816901F0100104918169DF
:1042500041F020018161816901F0200104918169AF
:1042600041F004018161816901F0040104918169D7
:1042700041F0080181618069DFF870A100F0080059
:1042800004900122CF215046FDF775FEDFF860B1A2
:104290000122B8215846FDF76EFE41F210080122B6
:1042A00041465448FDF767FE4FF400690022494635
:1042B0005846FDF760FE012204214F48FDF75BFEE2
:1042C000002208214B48FDF756FE4FF4C0400090F5
:1042D0004A480124CDE9010469465046FDF74AFDEC
:1042E000CF20CDE90004032569465046CDE90245BB
:1042F000FDF740FDB820CDE9000469465846CDE9F8
:104300000245FDF737FD4FF44C7002278DE8C100E0
:1043100069465046FDF72EFD40F603408DE8C1008A
:1043200069463448FDF726FDCDE9008469463148E9
:10433000CDE90245FDF71EFD20028DE8C10069466A
:104340005846FDF717FDCDF800900395CDE90147DC
:1043500069465846FDF70EFDDFF8A480E003CDE97D
:104360000008694602945846FDF704FD2003CDE994
:104370000006694602945046FDF7FCFC0420CDE996
:10438000000469461C48CDE90245FDF7F3FC08200E
:1043900003958DE8910069461648FDF7EBFC202057
:1043A00000901848CDE9010469461248FDF7E2FC87
:1043B0002802CDE90008694602940E48FDF7DAFCB0
:1043C000002204211720FEF70DF91720FEF7FCF854
:1043D000002204212820FEF705F92820FEF7F4F832
:1043E00005B0BDE8F08F0000001002400010014051
:1043F00000080140000C01400014014000002110A1
:1044000000003110000011100D4810B50B4901607B
:104410000C49416000214FF480428160C0E90312E1
:1044200041618161C1610162FDF72EFF002803D067
:10443000BDE81040FCF7A8BA10BD000000540040D1
:104440001C010020A0860100094810B50749016041
:104450000621416040F6FF718160FEF71FF80028D9
:1044600003D0BDE81040FCF78FBA10BD003000400B
:1044700070010020104810B50E4901604FF48271A0
:10448000416000218160C1604FF400720161C0E9A8
:1044900005121822C0E90721416281620A21C16226
:1044A000FEF736FC002803D0BDE81040FCF76CBADC
:1044B00010BD0000003800407C01002010B58EB017
:1044C00000240794089409940A940B941C216846CC
:1044D0000C94FBF774FE1F481D4901602321C0E9BD
:1044E00001146321C0E9031480218161FEF700FDFE
:1044F00008B1FCF749FA4FF48050079007A9154816
:10450000FEF742FD08B1FCF73FFA1248FEF7D1FE74
:1045100008B1FCF739FA0B940BA90E480C94FEF77E
:10452000A9FC08B1FCF730FA602000903220CDE9F8
:1045300001040022694607480494FEF754FE08B1BE
:10454000FCF722FA0348FEF727FE0EB010BD00006C
:1045500000040040D40100200C4810B50A49016055
:104560004FF416514160002181600C22C160C0E906
:1045700004128161C161FFF705F8002803D0BDE88E
:104580001040FCF701BA10BD003801401C030020A8
:104590000C4810B50A4901604FF4E1314160002137
:1045A00081600C22C160C0E904128161C161FEF723
:1045B000E9FF002803D0BDE81040FCF7E5B910BDC5
:1045C0000048004064030020FEE7FEE7FEF73EB827
:1045D000704700007CB50E460546421C12A1032020
:1045E000FCF77CF900242846FCF7AAFBB04209D06E
:1045F000CDE90060631C6A1C12A10320FCF76EF970
:1046000000207CBD022C05DA3220FDF72FFB174875
:10461000FDF773FF641C032CE5DB6A1C14A1032067
:10462000FCF75CF901207CBDBCECB2E9CDA8B5C0BB
:104630002564CAB9C4DCD0C5BAC5CEC8B6A8D0D422
:1046400000000000CDA8B5C02564B5DA2564B4CE5D
:10465000BCECB2E9CAA7B0DCA3BAC6DACDFB3D25F3
:1046600064A3ACCAB5BCCA3D25640000700100203B
:10467000CDA8B5C02564CAB9C4DCD0C5BAC5CEC8FA
:10468000B6A8D0D4BCECB2E9CDA8B9FD00000000BA
:1046900070B51CA10220FCF721F901250024E0B22D
:1046A000FCF74EFB0346012805D0621C1AA100202E
:1046B000FCF714F90025641C032CF0DB0024E0B2A5
:1046C000FCF766FB030005D0621C1EA10020FCF76E
:1046D00005F90025641C062CF1DB0024E0B2FCF790
:1046E0007BFB030004D0621C20A10320FCF7F6F83A
:1046F000641C032CF2DB1DB129A10220FCF7EEF8AB
:10470000284670BDBCECB2E9CFB5CDB3B3F5CABC99
:10471000D7B4CCAC00000000CDA8B5C02564CAB9A0
:10472000C4DCD0C5BAC5B3F5CABCD7B4CCACD2ECE6
:10473000B3A3A3BAC6DACDFB3D31A3ACCAB5BCCA9C
:104740003D256400BCCCB5E7C6F72564B3F5CABC0B
:10475000D7B4CCACD2ECB3A3A3BAC6DACDFB3D3010
:10476000A3ACCAB5BCCA3D2564000000BFAAB9D835
:104770002564B3F5CABCD7B4CCACA3BAC6DACDFBBA
:104780003D30A3ACCAB5BCCA3D2564A3A8D3B2BC16
:10479000FECEB4C1ACBDD3CAF4D5FDB3A3A3A9006A
:1047A000CFB5CDB3B3F5CABCD7B4CCACBCECB2E991
:1047B000CDA8B9FD0000000070B505460DA103208D
:1047C000FCF78CF80024AC4203D0E0B2FCF7B8FA56
:1047D00040B1641C032CF6DB0CA10320FCF77EF82F
:1047E000012070BD6B1C621C0FA10020FCF776F845
:1047F000002070BDBCECB2E9C6E4CBFBCDA8B5C0CF
:10480000BFD5CFD0D7B4CCAC00000000C6E4CBFB02
:10481000CDA8B5C0BFD5CFD0D7B4CCACBCECB2E935
:10482000CDA8B9FD00000000CDA8B5C02564B4A690
:10483000D3DABCA4BBEED7B4CCACA3ACD3EBCDA83D
:10484000B5C02564B3E5CDBB000000002DE9F047FD
:10485000074626A10320FCF741F800252C46BC4260
:1048600037D06006000EFCF793FA8046012000EB7B
:104870004400C0B2FCF78CFA8146E0B2FCF7ACFA17
:104880000646B8F1000F0BD0621C1EA10020FCF7F9
:1048900025F8022000EB4400C0B201F095F9012593
:1048A000B9F1000F09D0621C1CA10020FCF716F81A
:1048B000601DC0B201F088F9012556B1621C1DA12E
:1048C0000020FCF70BF804F10800C0B201F07CF9FD
:1048D0000125641C032CC2DB15B10020BDE8F08764
:1048E00019A10320FBF7FAFF0120F7E7BCECB2E9BE
:1048F000C6E4CBFBCDA8B5C0D7B4CCACB7B4C0A18F
:1049000000000000CDA8B5C02564BCCCB5E7C6F753
:1049100031D7B4CCACD2ECB3A3000000CDA8B5C065
:104920002564BCCCB5E7C6F732D7B4CCACD2ECB377
:10493000A3000000CDA8B5C02564BFAAB9D8D7B4DC
:10494000CCACD2ECB3A30000C6E4CBFBCDA8B5C081
:10495000D7B4CCACBCECB2E9CDA8B9FD00000000E6
:1049600000280BD00649012282400B68934300F1D6
:1049700040020B6003A10220FBF7B0BF70470000AC
:1049800004000020C7E5B3FDD2ECB3A3B1EAD6BE64
:104990003A2025630000000070B50D00044609D0E0
:1049A0000EA3621C0FA10220FBF798FF032C03D378
:1049B000012070BD12A3F4E7134804EB440100F892
:1049C000214000EB810401206570A070FDF7D8FA4A
:1049D0006060002020726072A07270BDB9D8B1D53D
:1049E00000000000B4B4BDA8CDA8B5C02564BFD8F0
:1049F000D6C6C8CECEF1A3ACB6AFD7F73D2573006F
:104A0000BFAAC6F4000000000800002070B50446EC
:104A1000421C16A10220FBF761FF01212046FCF792
:104A200085FA050006D0621C15A10020FBF756FF91
:104A3000284670BD6420FDF719F91848FDF75DFDA3
:104A40006D1C052DF6DB0121204601F0DDF904F196
:104A5000010228B112A10220FBF740FF002070BD27
:104A600013A10020FBF73AFF012070BDD6B4D0D0CF
:104A7000CDA8B5C02564B9D8B1D5B2D9D7F7000053
:104A8000CDA8B5C02564BCCCB5E7C6F7C2F6B3E582
:104A9000BFD8D6C6CAA7B0DC000000007001002055
:104AA000CDA8B5C02564B9D8B1D5B3C9B9A60000A1
:104AB000CDA8B5C02564B9D8B1D5D1E9D6A4CAA7C7
:104AC000B0DC000070B50446421C21A10220FBF7B7
:104AD00005FF2046FFF770FE80B12046FFF7B6FEC7
:104AE000A0B100212046FCF721FA050013D0621C7A
:104AF0001CA10020FBF7F2FE284670BD20A100207B
:104B0000FBF7ECFE012001F05FF81EE021A1002080
:104B1000FBF7E4FE19E06420FDF7A8F82248FDF752
:104B2000ECFC6D1C052DF6DB0021204601F06CF934
:104B300004F1010228B11DA10220FBF7CFFE0020E5
:104B400070BD1EA10020FBF7C9FE012070BD000052
:104B5000D6B4D0D0CDA8B5C02564BFAAC6F4B2D90A
:104B6000D7F70000CDA8B5C02564BCCCB5E7C6F723
:104B7000C2F6B3E5BFD8D6C6CAA7B0DC00000000B5
:104B8000C6E4CBFBCDA8B5C0CAB9C4DCB3E5CDBB88
:104B900000000000C6E4CBFBCDA8B5C0D7B4CCACB8
:104BA000D2ECB3A30000000070010020CDA8B5C076
:104BB0002564BFAAC6F4B3C9B9A60000CDA8B5C084
:104BC0002564BFAAC6F4D1E9D6A4CAA7B0DC000008
:104BD0002DE9F041C3A10220FBF780FECCA1022009
:104BE000FBF77CFEBFA10220FBF778FED1A10220DB
:104BF000FBF774FED748FDF780FC00F04DFED5486A
:104C0000FDF77BFC00F086FD4FF47A752846FDF732
:104C10002DF8D048FDF771FCCFA10220FBF75EFE16
:104C2000CC48FDF76AFCFFF733FD10B1D2A102209A
:104C300001E0D6A10020FBF751FE2846FDF716F84B
:104C4000C448FDF75AFCD6A10220FBF747FE00241A
:104C50004FF4FA66621CDAA10220FBF73FFEDDA1E9
:104C60000220FBF73BFEBB48FDF747FCE0B200F03B
:104C7000A9FD621CDAA10220FBF730FEB548FDF762
:104C80003CFCE0B2FFF71EFF0746B248FDF735FCDB
:104C9000002F04F1010250D0D7A10020FBF71EFE27
:104CA000DBA10220FBF71AFEAA48FDF726FCE0B2C2
:104CB00000F088FD3046FCF7D9FFA648FDF71DFC43
:104CC000621CD6A10220FBF709FEA248FDF715FCE5
:104CD000E0B2FFF79BFE07469E48FDF70EFC002F53
:104CE00004F101022CD0D3A15FF00000FBF7F6FD28
:104CF000D6A10220FBF7F2FD9648FDF7FEFBE0B2DD
:104D000000F060FD2846FCF7B1FF9248FDF7F5FB87
:104D1000641C032C9EDBD0A10220FBF7DFFDD6A193
:104D20000220FBF7DBFD012000F04EFF012000F028
:104D3000D3FC40B1D5A1022007E0D9A10220ADE704
:104D4000DDA10220D2E7E2A10020FBF7C7FD00F0C1
:104D5000E1FC0120FFF704FE012000F0BDFC00286B
:104D60002AD0E0A15FF00000FBF7B8FD2E462846F0
:104D7000FCF77CFF7748FDF7C0FBDFA10220FBF7C3
:104D8000ADFD7448FDF7B9FB0024E0B2FBF7D8FF96
:104D900005460346621CE0A10220FBF79FFD6D481B
:104DA000FDF7ABFBE0B22946FFF714FC04F101026A
:104DB00028B1DFA1022004E0E3A10220D4E7E7A1AB
:104DC0000120FBF78BFD6348FDF797FB641C032C68
:104DD000DBDB3046FCF74AFF5E48FDF78EFBE5A1C2
:104DE0000220FBF77BFD5B48FDF787FB0024594859
:104DF000FDF783FBE0B2FFF7DFFC04F1010210B125
:104E0000E5A1022001E0EAA10120FBF767FD641C97
:104E1000032CECDB3046FCF729FF4E48FDF76DFB19
:104E2000EAA10220FBF75AFD4A48FDF766FB002481
:104E30004848FDF762FBE0B2FFF708FD04F101020C
:104E400010B1EBA1022001E0F0A10120FBF746FD2B
:104E5000641C032CECDB3046FCF708FF3D48FDF7F3
:104E60004CFBF2A10220FBF739FDF8A10220FBF771
:104E700035FD00210846FFF78FFD002830D0F9A14D
:104E80000020FBF72BFD3046FCF7F0FE3148FDF724
:104E900034FBF8A10220FBF721FD2E48FDF72DFB86
:104EA00000F040FE00281CD0FAA10020FBF716FD00
:104EB0002848FDF722FB3046FCF7D8FE2548FDF7D1
:104EC0001CFBF8A10220FBF709FDFEA10220FBF765
:104ED00005FD2048FDF711FB00F0DEFC1D48F9E15F
:104EE0000FE22AE23D3D3D3D3D3D3D3D3D3D3D3DE9
:104EF0003D3D3D3D3D3D3D3D3D3D3D3D3D3D3D3DE2
:104F00003D3D3D3D3D3D3D3D3D3D3D3D00000000C5
:104F10003D3D3D20BCCCB5E7C6F7BFD8D6C6C4A33F
:104F2000BFE9CDEAD5FBB2E2CAD4BFAACABC203DD4
:104F30003D3D00000A2D2D2D20B2E2CAD431A3BA86
:104F4000CFB5CDB3D7B4CCACBCECB2E9202D2D2D70
:104F500000000000700100200A2D2D2D20B2E2CAB1
:104F6000D432A3BAB3F5CABCD7B4CCACD1E9D6A479
:104F7000202D2D2D000000003F20B3F5CABCD7B472
:104F8000CCACBCECB2E9CDA8B9FD00003F20B3F534
:104F9000CABCD7B4CCACBCECB2E9CAA7B0DC000048
:104FA0000A2D2D2D20B2E2CAD433A3BAB5A5CDA8BF
:104FB000B5C0CFEACFB8B2E2CAD4202D2D2D000063
:104FC0000A3E3E20B2E2CAD4CDA8B5C02564203C3A
:104FD0003C000000B2E2CAD4C7B0D7B4CCAC3A00AF
:104FE000D6B4D0D0CDA8B5C02564BFAAC6F4B2E26D
:104FF000CAD42E2E2E0000003F20CDA8B5C02564B7
:10500000BFAAC6F4B2E2CAD4CAA7B0DC000000004E
:10501000BFAAC6F4BAF3D7B4CCAC3A00D6B4D0D059
:10502000CDA8B5C02564B9D8B1D5B2E2CAD42E2E68
:105030002E0000003F20CDA8B5C02564B9D8B1D559
:10504000B2E2CAD4CAA7B0DC00000000B9D8B1D51A
:10505000BAF3D7B4CCAC3A000A2D2D2D20B2E2CA57
:10506000D434A3BAD2ECB3A3B4A6C0EDB2E2CAD48E
:10507000202D2D2D00000000B2E2CAD4D2ECB3A343
:10508000B1EAD6BEB9DCC0ED2E2E2E003F20D2EC08
:10509000B3A3B1EAD6BE41C9E8D6C3B3C9B9A60025
:1050A0003F20CDA8B5C02564BFAAC6F4B2E2CAD4D9
:1050B000CDA8B9FD000000003F20CDA8B5C02564F3
:1050C000B9D8B1D5B2E2CAD4CDA8B9FD000000006C
:1050D0003F20D2ECB3A3B1EAD6BE41C9E8D6C3CAD9
:1050E000A7B0DC003F20D2ECB3A3B1EAD6BE41C7E3
:1050F000E5B3FDCAA7B0DC000A2D2D2D20B2E2CA0F
:10510000D435A3BACEC8B6A8D0D4BCECB2E9B2E2CA
:10511000CAD4202D2D2D0000CDA8B5C02564B5B171
:10512000C7B0CAB9C4DCD7B4CCAC3A2025640000FF
:105130003F20CDA8B5C02564CEC8B6A8D0D4BCEC5D
:10514000B2E9CDA8B9FD00003F20D2ECB3A3B1EA8B
:10515000D6BE41C7E5B3FDB3C9B9A6003F3F20CDD8
:10516000A8B5C02564CEC8B6A8D0D4BCECB2E9CAF4
:10517000A7B0DC000A2D2D2D20B2E2CAD436A3BA86
:10518000CDA8B5C0BBA5CBF8BCECB2E9B2E2CAD49D
:10519000202D2D2D000000003F20CDA8B5C0256496
:1051A000BBA5CBF8BCECB2E9CDA8B9FD000000006E
:1051B0003F3F20CDA8B5C02564BBA5CBF8BCECB261
:1051C000E9B7A2CFD6B3E5CDBB0000000A2D2D2D47
:1051D00020B2E2CAD437A3BAD7B4CCACB7B4C0A11A
:1051E000BCECB2E9B2E2CAD4202D2D2D00000000A3
:1051F0003F20CDA8B5C02564D7B4CCACB7B4C0A10E
:10520000BCECB2E9CDA8B9FD000000003F3F20CDC5
:10521000A8B5C02564D7B4CCACB7B4C0A1BCECB2BF
:10522000E9B7A2CFD6D2ECB3A30000000A2D2D2DF2
:1052300020B2E2CAD438A3BAC8CECEF1B9DCC0EDF0
:10524000B2E2CAD4202D2D2D00000000B4B4BDA8B8
:10525000CDA8B5C031BFAAC6F4C8CECEF12E2E2E31
:10526000000000003F20C8CECEF1B4B4BDA8CAA74C
:10527000B0DC00000A2D2D2D20B2E2CAD439A3BA29
:10528000CFB5CDB3D7D4BCECB2E2CAD4202D2D2DEE
:10529000000000003F20CFB5CDB3D7D4BCECCAA7E7
:1052A000B0DC00000A2D2D2D20B2E2CAD43130A38B
:1052B000BAD7EED6D5D7B4CCACBCECB2E9202D2D04
:1052C0002D000000D7EED6D5CFB5CDB3D7B4CCAC3A
:1052D0003A000000FDF711F900F01CFA1848FDF73C
:1052E0000CF9AFF200410220FBF7F8FA15A10220F9
:1052F000FBF7F4FAAFF21441BDE8F0410220FBF7EE
:10530000EDBA19A10220FBF7E9FA002000F0F0F94C
:1053100010B119A1022001E01CA10020FBF7DEFA68
:105320001FA10220FBF7DAFA0548FDF7E6F800F0C6
:1053300095FB0348FDF7E1F8A5E51CA10220B5E5C2
:10534000700100203D3D3D20BCCCB5E7C6F7BFD87D
:10535000D6C6C4A3BFE9CDEAD5FBB2E2CAD4CDEA32
:10536000B3C9203D3D3D00003F20C8CECEF1B4B4CE
:10537000BDA8B3C9B9A600003F20C8CECEF1D7B4AE
:10538000CCACBCECB2E9D5FDC8B700003F20C8CE1C
:10539000CEF1D7B4CCACBCECB2E9B4EDCEF30000A6
:1053A000B4A6C0EDC8CECEF12E2E2E003F20CFB534
:1053B000CDB3D7D4BCECCDA8B9FD000010B50EA17B
:1053C0000220FBF78BFA1C211248FAF7F8FE242181
:1053D0001148FAF7F4FE10490020091F0860FBF796
:1053E00013FD00F0DFFC0B49012008750BA1022022
:1053F000FBF774FA002010BDBCCCB5E7C6F7BFD8E8
:10540000D6C6C4A3BFE9B3F5CABCBBAFBFAACABC6A
:10541000000000008C00002008000020BCCCB5E794
:10542000C6F7BFD8D6C6C4A3BFE9B3F5CABCBBAFE5
:10543000CDEAB3C90000000070B538A10220FBF727
:105440004DFA3E48FDF759F83DA10220FBF746FA18
:1054500046A10220FBF742FA4CA10220FBF73EFADC
:105460003648FDF74AF854A10220FBF737FA5AA153
:105470000220FBF733FA5FA10220FBF72FFA2F4837
:10548000FDF73BF80020FFF71DFB04462B48FDF716
:1054900034F8002C3CD061A15FF00000FBF71EFA4D
:1054A00040F6B8352846FCF7E1FB2448FDF725F81F
:1054B00060A10220FBF712FA66A10220FBF70EFAA8
:1054C0004CA10220FBF70AFA1C48FDF716F8002051
:1054D000FFF79CFA04461948FDF70FF8002C1AD084
:1054E00063A10020FBF7FAF92846FCF7BFFB13483D
:1054F000FDF703F825A10220FBF7F0F962A10220D5
:10550000FBF7ECF9BDE8704020A10220FBF7E6B9FB
:1055100065A10220C2E76AA10220E3E70A3F3F3FFC
:1055200020D5FDD4DABDF8C8EBD6D0B6CFB2E2CAEA
:10553000D4BAAFCAFD203F3F3F00000070010020F9
:105540000A3D3D3D3D3D3D3D3D3D3D3D3D3D3D3DBE
:105550003D3D3D3D3D3D3D3D3D3D3D3D3D3D3D3D7B
:105560003D3D3D3D3D3D3D3D3D0000003D3D3D203F
:10557000D6D0B6CFB4A6C0EDC4A3C4E2B2E2CAD4BA
:10558000BFAACABC203D3D3D000000003D3D3D3D61
:105590003D3D3D3D3D3D3D3D3D3D3D3D3D3D3D3D3B
:1055A0003D3D3D3D3D3D3D3D3D3D3D3D3D3D3D3D2B
:1055B0003D3D3D3D000000000A2D2D2D20C4A3C41B
:1055C000E24B315F454ECFC2BDB5D1D8D6D0B6CFB4
:1055D000202D2D2D00000000C4A3C4E2CDA8B5C02D
:1055E00031CAB9C4DCD0C5BAC5CFC2BDB5D1D82E79
:1055F0002E2E0000D7A2D2E2A3BAD5E2CAC7C4A316
:10560000C4E2B2E2CAD4A3ACCCF8B9FD4750494FCA
:10561000CEC8B6A8D0D4BCECB2E900003F20CDA8DB
:10562000B5C031BFAAC6F4C4A3C4E2B2E2CAD4CAA8
:10563000A7B0DC000A2D2D2D20C4A3C4E24B315F9E
:10564000454EC9CFC9FDD1D8D6D0B6CF202D2D2DEE
:1056500000000000C4A3C4E2CDA8B5C031CAB9C4DB
:10566000DCD0C5BAC5C9CFC9FDD1D82E2E2E0000B9
:105670003F20CDA8B5C031B9D8B1D5C4A3C4E2B2DA
:10568000E2CAD4CAA7B0DC003D3D3D20D6D0B6CF9B
:10569000B4A6C0EDC4A3C4E2B2E2CAD4CDEAB3C991
:1056A000203D3D3D000000003F20CDA8B5C031BFEA
:1056B000AAC6F4C4A3C4E2B2E2CAD4B3C9B9A6006C
:1056C0003F20CDA8B5C031B9D8B1D5C4A3C4E2B28A
:1056D000E2CAD4B3C9B9A6000121814003480068D9
:1056E000014201D0012070470020704704000020D3
:1056F00003280AD200EB4001054800EB8100817AC3
:1057000019B9807808B10120704700207047000067
:1057100008000020F0B58FB016A10220FBF7DEF8DC
:10572000184D19A102202A68FBF7D8F82868D0B1D3
:10573000012426464FEA0D07296806FA04F00842BC
:105740000CD03C2216496846FAF720FD57F8243061
:1057500004F1400213A10220FBF7C0F8641C0E2CD8
:10576000EADD0FB0F0BD0FB012A1BDE8F04002209D
:10577000FBF7B4B8D2ECB3A3D7B4CCACCFEAC7E94B
:105780003A000000040000202020D2ECB3A3B1EACC
:10579000D6BECEBBCDBC3A2030782530386C580010
:1057A000E47500082020D2ECB3A325633A202573CA
:1057B000000000002020B5B1C7B0CEDED2ECB3A30C
:1057C0000000000070B50446032829D200F0EAFA70
:1057D000621C14A10220FBF781F8164D04EB84042F
:1057E00015A12A5D0220FBF779F82C4416A16278F6
:1057F0000220FBF773F8A27818A10220FBF76EF8DD
:10580000E2781BA10220FBF769F8207908B11CA2FD
:1058100000E01CA2BDE870401BA10220FBF75EB8AF
:1058200070BD0000CDA8B5C02564D7B4CCACCFEA1C
:10583000C7E93A008C0000202020CAB9C4DCD7B4E4
:10584000CCAC3A20256400002020BCCCB5E7C6F7DC
:1058500031D7B4CCAC3A2025640000002020BCCC69
:10586000B5E7C6F732D7B4CCAC3A202564000000C7
:105870002020BFAAB9D8D7B4CCAC3A202564000008
:10588000CAC70000B7F100002020CDA8B5C0BCA455
:10589000BBEE3A2025730000F0B587B000F082FA25
:1058A00019A10220FBF71AF81E4D287D08B11EA28F
:1058B00000E01EA21EA10220FBF710F85FF000041A
:1058C00004EB84025119087908B117A300E017A36B
:1058D000CE788F78601CCDE904060397069349784B
:1058E0000290CDE90001AB5C621C15A10220FAF721
:1058F000F5FF641C032CE3DB2A6907B01DA1BDE89A
:10590000F0400220FAF7EABF3D3D3D20BCCCB5E7B0
:10591000C6F7BFD8D6C6CFB5CDB3D7B4CCAC203D33
:105920003D3D00008C000020CAC70000B7F1000018
:10593000CFB5CDB3BECDD0F73A202573000000001F
:10594000CDA8B5C025643A20454E3D25642C204B9A
:1059500025645F313D25642C204B25645F323D2555
:10596000642C20535725643D25642C20BCA4BBEE39
:105970003D257300D2ECB3A3B1EAD6BE3A2030780D
:105980002530386C5800000070B504460D460B46B3
:10599000421C16A10220FAF7A1FF1B48007D50B15E
:1059A0002046FFF7A5FE58B1621C18A10120FAF7A6
:1059B00095FF022070BD1BA10020FAF78FFF0CE0BD
:1059C00029462046FEF706FE10B145B1012107E049
:1059D000621C1CA10120FAF781FF012070BD00218B
:1059E0002046BDE87040FEF7D7BF0000B4A6C0ED6A
:1059F000CDA8B5C02564CAB9C4DCD0C5BAC5A3ACAE
:105A0000D7B4CCAC3D2564008C000020CDA8B5C037
:105A10002564D2D1D3D0C8CECEF1D4DAB4A6C0EDAD
:105A200000000000CFB5CDB3CEB4BECDD0F7A3AC4F
:105A3000BEDCBEF8B4A6C0EDCDA8B5C0CAB9C4DC02
:105A400000000000CDA8B5C02564CAB9C4DCD0C52B
:105A5000BAC5B2BBCEC8B6A8000000002DE9F04719
:105A60002448FCF74AFD0025234E04274FF0050883
:105A70004FF0010905EB450006EB8004A07A00BB5E
:105A8000A078F0B11B48FCF738FDA078012806D0BB
:105A9000022807D004281AD0052825D11DE00220AD
:105AA000A07021E01348FCF728FD60780028E8B2D8
:105AB00008D0FEF7ABFF40B184F802800D48FCF738
:105AC0001CFD11E0FEF7FEFFF5E7A770F6E76A1C84
:105AD00084F80A9009A1022004E084F80A906A1C64
