:020000040800F2
:10000000680700204901000803450008B5360008CC
:10001000014500087B070008BF4A000800000000F7
:10002000000000000000000000000000294500085A
:100030008907000800000000094500082B4500085A
:10004000630100080545000863010008630100081A
:1000500063010008630100086301000863010008F0
:100060006301000863010008630100087D070008C0
:1000700063010008630100086301000863010008D0
:100080006301000863010008190700086301000804
:100090006301000863010008630100086B090008A0
:1000A00063010008630100086301000863010008A0
:1000B00063010008A545000863010008C536000873
:1000C000B9360008630100086301000863010008F5
:1000D0000D450008894A000863010008954A000898
:1000E0004D0900086301000863010008630100086E
:1000F0006301000863010008630100086301000850
:10010000630100086301000863010008630100083F
:10011000630100086301000863010008630100082F
:10012000630100086301000863010008630100081F
:10013000DFF810D000F060FA0048004709540008CA
:10014000AFF3008068070020064880470648004754
:10015000FEE7FEE7FEE7FEE7FEE7FEE7FEE7FEE777
:10016000FEE7FEE7A345000831010008202A04DB72
:10017000203A21FA02F00021704721FA02F3D04020
:10018000C2F12002914008431946704740EA01033A
:100190009B0703D009E008C9121F08C0042AFAD23D
:1001A00003E011F8013B00F8013B521EF9D2704701
:1001B000D2B201E000F8012B491EFBD270470022A9
:1001C000F6E710B513460A4604461946FFF7F0FF56
:1001D000204610BD421E12F8013F002BFBD111F842
:1001E000013B02F8013B002BF9D17047421C10F88B
:1001F000011B0029FBD1801A704730B50B46014620
:1002000000202022012409E021FA02F59D4205D3B5
:1002100003FA02F5491B04FA02F52844151EA2F15F
:100220000102F1DC30BD2DE9F05F05460020924669
:100230009B4688460646814640241BE028464146A8
:1002400047462246FFF792FF53465A46C01A91414D
:1002500010D311461846224600F0E0F92D1A67EB3C
:1002600001084F4622460120002100F0D7F917EB84
:1002700000094E41201EA4F10104DFDC484631464E
:100280002A464346BDE8F09F2DE9FE4F804681EAAD
:100290000300C00F0C46009021F0004123F0004500
:1002A000B8EB0200A94105D24046214690461C46C3
:1002B0000B46024623F00040104347D0270DC7F3FA
:1002C0000A00C3F30A510290401A019040286BDAE9
:1002D000C3F3130040F4801B0098924620B1002322
:1002E000D2EB030A63EB0B0B01985946C0F14002B5
:1002F000504600F093F906460D4650465946019A7D
:1003000000F09BF910EB08006141002487EA1152CC
:1003100084EAE7731A4340D0009A62B3019A012A33
:100320004FEA075215DC001B61EB02014FF000425F
:1003300002EA0752CDE90042001C41F58011324625
:100340002B4600F09BF903B0BDE8F08F40462146F4
:10035000F9E7001B61EB0201001C41F58013001856
:100360005B412018A2F5001747EB030140EAD57066
:10037000B6196D4111E06D084FEA360645EAC075C1
:100380004FEA0752001B61EB0201001C41F580118E
:1003900049084FEA30000019514132462B4603B05C
:1003A000BDE8F04F00F05BB9009801224000002347
:1003B000D0EB020263EBE073009821464FEAE07451
:1003C000B8EB000061EB0401E9E783F000435BE771
:1003D00081F0004158E72DE9FE4F81EA030404F063
:1003E000004421F0004100944FF0000B23F0004343
:1003F00050EA01045ED052EA03045BD0C3F30A540E
:10040000C1F30A552C44A4F2F3340194A0FB025426
:10041000C1F3130141F48011C3F3130343F48013B8
:1004200001FB024400FB034E840A970A44EA81540C
:1004300047EA8357A4FB076802958D0A05FB0785E9
:100440004FEA932C04FB0C542705029D4FEA0658F3
:1004500047EA1637B5EB08056EEB070C870E920ED0
:1004600047EA811742EA8312A7FB0201B6EB0B01B0
:1004700064EB00042B0D43EA0C335E1844EB1C5074
:10048000DA465146E7FB0201C5F313044FEA0B338A
:1004900043EA14534FEA0432019C43EA0603A4F1F1
:1004A0000C040294009CCDE900B400F0E7F803B01E
:1004B000BDE8F08F00200146F9E72DE9F04D81EA13
:1004C000030404F0004B21F0004514464FF0000AED
:1004D00023F0004150EA050220D054EA01021DD069
:1004E000C5F30A570246C5F31303C1F31300C1F362
:1004F0000A5640F4801543F48013A7EB0608101B3E
:10050000D64608F2FD3873EB050002D308F1010866
:1005100001E092185B41B8F1000F03DA00200146B8
:10052000BDE8F08D00204FF48011064684460EE0B1
:10053000171B73EB050705D3121B63EB050306437B
:100540004CEA010C49084FEA300092185B4150EA2E
:100550000107EDD152EA030012D082EA040083EAD7
:100560000501084305D0101BAB4106D20122002330
:1005700006E000224FF0004302E06FF0010253104A
:100580001AEB06004CEB085110EB0A0041EB0B0193
:10059000BDE8F04D00F063B8C1F30A52C1F3130196
:1005A00040F2FF3341F480119A4202DA0020014602
:1005B000704740F233439A42A2F2334202DC524285
:1005C000FFF7D4BD00F02AB830B5041E71F1000465
:1005D00004DB4FF00044404264EB0101141E73F150
:1005E000000405DB1C464FF00043524263EB04035A
:1005F000994208BF904230BD064C074D06E0E068C6
:1006000040F0010394E8070098471034AC42F6D359
:10061000FFF792FD0058000820580008202A04DB4C
:10062000203A00FA02F1002070479140C2F1200305
:1006300020FA03F3194390407047202A06DBCB17BA
:10064000203A41FA02F043EAE07306E041FA02F38D
:10065000D040C2F12002914008431946704710B5BE
:10066000141E73F1000408DA401C41F100019218D5
:100670005B411A4301D120F0010010BD2DE9F04D7E
:1006800092469B4611B1B1FA81F202E0B0FA80F2D3
:1006900020329046FFF7C2FF04460F4640EA0A00A8
:1006A00041EA0B0153465A46084313D0114653EA18
:1006B000010019D0C8F140025046FFF757FD05462A
:1006C0000E46504659464246FFF7A8FF084305D05C
:1006D000012004E020463946BDE8F08D00200543A6
:1006E00046EAE0762C4337430A986305E40AA0EB18
:1006F00008000022FD0A44EA47540A3002D50020CF
:100700000146E9E7010510196941DDE908450019CD
:100710006941BDE8F04DA2E7014800F036BF000096
:100720006000002070B5044600688168C943C907AD
:1007300017D1816821F00101816001F0BDFB054600
:100740000AE000BF01F0B8FB401B022804D9206872
:100750008068C043C00706D020688068C043C007D7
:10076000F0D0002070BDA06A40F01000A062E06AE6
:1007700040F00100E062012070BDFEE7014801F099
:1007800013B90000900000207047000038B1012824
:1007900007D0022807D0032807D005A0704706A07D
:1007A000704707A0704708A0704709A07047000075
:1007B000554E4B4E200000004552524F5200000053
:1007C0005741524E20000000494E464F2000000085
:1007D0004445425547000000054910B50120087006
:1007E00004A10F4804F05CF9BDE8104000F01AB80D
:1007F000010000200D0A3D3D3D20C8FDCDA8B5C03B
:10080000C7D0BBBBCFE4BFD8D6C6CFB5CDB3B5F745
:10081000CAD4C6F4B6AF203D3D3D0D0A000000002D
:100820001C03002010B50EA1022000F057F80FA104
:10083000022000F053F801F0DFFF1249B0FBF1F2A3
:1008400011A1022000F04AF814A1022000F046F89D
:10085000BDE8104016A319A21BA1022000F03EB86B
:10086000CFB5CDB3D0C5CFA23A00000020204D4374
:10087000553A2053544D3332463130335243543677
:100880000000000040420F002020CFB5CDB3CAB118
:10089000D6D33A20256C75204D487A002020B9CC5B
:1008A000BCFEB0E6B1BE3A2076322E300000000029
:1008B00032333A32323A3037000000004A756E2047
:1008C00032392032303235002020B1E0D2EBCAB1CB
:1008D000BCE43A2025732025730000000FB438B51E
:1008E00005461348007800281ED006AC01F0E4FA53
:1008F00003462846FFF74AFF00900EA24FF480718E
:10090000104804F0DDF80F4AC0F58071104423460A
:10091000059A04F0EFF80CA10A48FFF75BFC0949BF
:1009200001F5A47004F0BCF838BC5DF814FB0000BD
:10093000010000205B2530386C755D5B25735D2000
:1009400000000000D40100200D0A000010B54FF493
:10095000005001F09FF94FF4804001F09BF9BDE891
:1009600010404FF4004001F095B910B5202001F07F
:1009700091F94FF4807001F08DF9BDE810404FF40B
:10098000007001F087B9000007A10020FFF7A6FF63
:100990000EA10020FFF7A2FF72B64FF4FA742046B2
:1009A00001F064F9FBE70000CFB5CDB3B7A2C9FAF7
:1009B000D1CFD6D8B4EDCEF3A3ACBDF8C8EBB4ED2F
:1009C000CEF3B4A6C0EDB3CCD0F20000CFB5CDB31A
:1009D000BDABB1BBB9D2C6F0A3ACC7EBBCECB2E9BE
:1009E000D3B2BCFEC1ACBDD3BACDC5E4D6C3000002
:1009F0002DE9F0411F4615460E46804600240CE0C6
:100A0000404600F09DF9B04202D00020BDE8F081E0
:100A1000384601F02BF9641CE4B2AC42F0D301205B
:100A2000F4E70000064A002128B1012805D0022879
:100A300000D191707047117070475170704700007D
:100A400014000020064928B1012805D0022805D04D
:100A5000002070470878704748787047887870475A
:100A60001400002010B5044601F026FA4F49B4F5F1
:100A7000007F1CD0B4F5807F39D0B4F5004F55D03D
:100A8000202C76D0B4F5005F6DD0B4F5804F6BD1DB
:100A90008A69821AC82A67D98A7842F002028A7063
:100AA000886143A10320BDE81040FFF717BF4A68E3
:100AB000821A322A78D90A7842F001020A70486014
:100AC000002000F03DF9044602463EA10220FFF757
:100AD00005FF3223032221460020FFF789FF00286B
:100AE00062D014B13EA10220DDE745A1FBE78A6890
:100AF000821A322A58D90A7842F002020A708860B3
:100B0000012000F01DF90446024645A10220FFF72E
:100B1000E5FE3223032221460120FFF769FF00286A
:100B200042D00CB145A1DEE74CA1DCE7CA68821ACD
:100B3000322A39D90A7842F004020A70C8600220C9
:100B400000F0FEF8044602464CA10220FFF7C6FE64
:100B50003223032221460220FFF74AFF002823D038
:100B60002CB102E005E014E01EE04BA1BBE752A16E
:100B7000B9E70A69821A322A16D901224A70086135
:100B800000F0F8F80246BDE8104053A10120FFF73D
:100B9000A5BE4A69821AC82A06D98A7842F001029B
:100BA0008A70486154A17DE710BD00001400002048
:100BB0004B455932B0B4BCFCD6D0B6CFB4A5B7A221
:100BC000000000004B315F454ED6D0B6CFB4A5B77C
:100BD000A22C20B5B1C7B0D7B4CCAC3A2025640064
:100BE0004B315F454EC9CFC9FDD1D8BCECB2E2A3B1
:100BF000ACD7BCB1B8B9D8B1D5CDA8B5C03100001B
:100C00004B315F454ECFC2BDB5D1D8BCECB2E2A3EB
:100C1000ACD7BCB1B8BFAAC6F4CDA8B5C0310000EE
:100C20004B325F454ED6D0B6CFB4A5B7A22C20B577
:100C3000B1C7B0D7B4CCAC3A202564004B325F4585
:100C40004EC9CFC9FDD1D8BCECB2E2A3ACD7BCB180
:100C5000B8B9D8B1D5CDA8B5C03200004B325F4588
:100C60004ECFC2BDB5D1D8BCECB2E2A3ACD7BCB1BB
:100C7000B8BFAAC6F4CDA8B5C03200004B335F455B
:100C80004ED6D0B6CFB4A5B7A22C20B5B1C7B0D739
:100C9000B4CCAC3A202564004B335F454EC9CFC974
:100CA000FDD1D8BCECB2E2A3ACD7BCB1B8B9D8B1D5
:100CB000D5CDA8B5C03300004B335F454ECFC2BD84
:100CC000B5D1D8BCECB2E2A3ACD7BCB1B8BFAAC610
:100CD000F4CDA8B5C033000044435F4354524CD612
:100CE000D0B6CFB4A5B7A22C20B5E7D4B4D7B4CC36
:100CF000AC3A2025640000004B455931B0B4BCFC2F
:100D0000D6D0B6CFB4A5B7A20000000010B52421FC
:100D10000448FFF754FABDE8104003A10220FFF792
:100D2000DDBD0000140000204750494FD6D0B6CF9B
:100D3000CFB5CDB3B3F5CABCBBAFCDEAB3C90000E4
:100D400001000A4A4FF0000008D0012909D0022909
:100D50000BD10748890300BF01F0A4B84FF400711C
:100D600001E04FF480711046F6E77047000C014037
:100D7000000801402021014801F094B8000C014016
:100D80004FF48051014801F08DB80000001001407F
:100D9000014630B400200E4B0E4A062916D2DFE879
:100DA00001F00305070A0D0F102102E0022109E0FE
:100DB0002021184607E04FF4806103E0012101E0A3
:100DC0004FF40061104630BC01F06CB830BC704785
:100DD00000100140000C014002004FF000004FF4F1
:100DE000807105D0064B012A04D0022A07D103E006
:100DF000044802E04FF40071184601F053B8704700
:100E0000001001400008014070B52EA10220FFF73C
:100E100065FD314C01221146204601F048F80122BF
:100E20000221204601F043F8012211032B4801F072
:100E30003EF82B4D01220821284601F038F8012206
:100E40000421204601F033F801220821204601F058
:100E50002EF801221021284601F029F80122202134
:100E6000284601F024F801228021204601F01FF8D5
:100E700001224021204601F01AF8012204211948DC
:100E800001F015F801228021284601F010F816A182
:100E90000220FFF723FD0024E0B200F0EFF808B1D4
:100EA00015A300E016A3621C17A10220FFF716FD90
:100EB000641C032CF0DBBDE8704017A10220FFF793
:100EC0000DBD0000BCCCB5E7C6F7B3F5CABCBBAFDF
:100ED000BFAACABC0000000000100140000C014085
:100EE0000008014000140140BCCCB5E7C6F7B3F5DB
:100EF000CABCD7B4CCAC3A00CEFCBACF00000000DC
:100F0000B6CFBFAA000000002020CDA8B5C0256440
:100F10003A20257300000000BCCCB5E7C6F7B3F556
:100F2000CABCBBAFCDEAB3C90000000070B50E4625
:100F3000040005D0012C06D0022C07D0012070BD82
:100F40000020012504E00220032501E004200525FE
:100F5000E6B100F0E3F8284600F0E0F8621C2DA1AD
:100F60000220FFF7BBFC0025642000F07FFE304824
:100F700001F05FFA6D1C052DF6DB2E482E4D6EB18B
:100F80004CB3012C2ED0022C3CD132E000F0EAF818
:100F9000284600F0E7F8621C28A1E1E724B1012C03
:100FA0000AD0022C2ED10EE00122114600F07FFF64
:100FB00001221103284823E00122042100F077FFD9
:100FC000012210211BE00122802100F070FF01228C
:100FD0000421224814E00122022100F068FF0122CE
:100FE00008210CE00122082100F061FF01222021EC
:100FF00005E00122402100F05AFF0122802128460D
:1010000000F055FF621C16A10220FFF767FC0020CC
:1010100070BD0000CDA8B5C02564BCCCB5E7C6F74F
:10102000B6CFBFAAC2F6B3E5BFAACABC0000000093
:10103000280100200010014000080140CDA8B5C0E3
:101040002564BCCCB5E7C6F7CEFCBACFC2F6B3E593
:10105000BFAACABC00000000000C014000140140FF
:10106000CDA8B5C02564BCCCB5E7C6F7C2F6B3E5DC
:10107000BFD8D6C6CDEAB3C90000000070B586B0AF
:10108000040004D0012C0CD0022C30D125E000202B
:10109000FFF77EFE06460120FFF77AFE0546002098
:1010A00008E00220FFF774FE06460320FFF770FEFB
:1010B00005460120FFF790FE611CCDE90115009661
:1010C000CDE90310631C621C0AA10320FFF706FC94
:1010D0006EB165B1012006B070BD0420FFF758FE67
:1010E00006460520FFF754FE05460220E2E70020F1
:1010F000F1E70000CDA8B5C02564D7B4CCAC3A2048
:101100004B25645F313D25642C204B25645F323DC7
:1011100025642C20535725643D25640001460F4863
:101120000F4B062918D2DFE801F00306090C101452
:10113000002202210BE00022082104E00022082105
:1011400005E000222021184601E00022402100F0A5
:10115000AEBE00228021F6E770470000001001407B
:10116000000801400146104806291BD2DFE801F0C3
:1011700003060B0E12150022012111E000224FF48C
:1011800080510A480CE00022042109E000221021CD
:10119000074805E00022802102E0002204210548E2
:1011A00000F085BE7047000000100140000C0140B7
:1011B00000080140001401402DE9FE434FF00008F3
:1011C000204D42464046295C09B9521CD2B2401C0F
:1011D0000328F8DB012A05D91BA10020FFF77EFBBD
:1011E0004FF001080024A94609EB440109EB040073
:1011F000CD780E79477AB5420BD0601CCDE900500E
:10120000631C621C1AA102960120FFF767FB4FF0D6
:10121000010815B10EB1012000E00020B8420AD04B
:10122000009715B10EB1012300E00023621C1BA141
:101230000320FFF753FB641C032CD5DB4046BDE8BD
:10124000FE83000038000020BCECB2E2B5BDCDA8A2
:10125000B5C0CAB9C4DCB3E5CDBBA3BA2564B8F642
:10126000CDA8B5C0CDACCAB1BCA4BBEE0000000097
:10127000CDA8B5C02564BCCCB5E7C6F7D7B4CCAC17
:10128000B2BBD2BBD6C2A3BA4B25645F313D256445
:101290002C204B25645F323D25640000CDA8B5C0ED
:1012A0002564BCCCB5E7C6F7D3EBBFAAB9D8D7B491
:1012B000CCACA3BABCCCB5E7C6F73D25642C20BFA7
:1012C000AAB9D83D25640000094910B5012008706D
:1012D00014210848FEF773FF064814211430FEF766
:1012E0006EFFBDE8104004A10220FFF7F7BA00002E
:1012F00000000020380000204750494FD7B4CCAC44
:10130000BCE0BFD8CFB5CDB3B3F5CABCBBAFCDEA57
:10131000B3C90000224810B5007800283FD0214909
:10132000142201F11400FEF731FF0020FFF708FD41
:101330001C4C20700120FFF703FD60700220FFF7B6
:10134000FFFCA0700020FFF723FDE0700120FFF7F5
:101350001FFD20710220FFF71BFD60710320FFF7C6
:1013600017FDA0710420FFF713FDE0710520FFF7C2
:101370000FFD20720020FFF72FFD60720120FFF7A4
:101380002BFDA0720220FFF727FDE072FFF7F2FCB1
:101390002073FFF7F5FC607300F08EFD206110BD37
:1013A00000000020380000201FB515A10320FFF722
:1013B00095FA194C19A1A07800906378227803203F
:1013C000FFF78CFA6079237AE279A1798DE80F0032
:1013D0002379E27819490320FFF780FAE07A009038
:1013E000A37A627A16A10320FFF778FA637B227B47
:1013F00004B01CA1BDE810400320FFF76FBA000045
:101400003D3D3D204750494FD7B4CCACCFEAC7E96A
:10141000203D3D3D0000000038000020CDA8B5C0B3
:10142000CAB9C4DC3A204B313D25642C204B323DF7
:1014300025642C204B333D2564000000BC57000878
:10144000BFAAB9D8D7B4CCAC3A205357313D2564A4
:101450002C205357323D25642C205357333D2564AF
:1014600000000000C6E4CBFBD7B4CCAC3A20444328
:101470005F4354524C3D25642C2046414E5F5345FA
:101480004E3D25640000000070470000F8B50024C0
:10149000009490F824202546012A12D0012280F8D9
:1014A00024204A681F23072A0DD20668776B521E34
:1014B00002EB820293409F430B6893401F43776384
:1014C00019E00220F8BD06680D2A0AD2376BD21F38
:1014D00002EB820293409F430B6893401F433763A4
:1014E00009E0F76A0D3A02EB820293409F430B68D2
:1014F00093401F43F7620A68072306680A2A0AD343
:10150000F7680A3A02EB420293409F438B6893408C
:101510001F43F76008E0376902EB420293409F43A4
:101520008B6893401F4337610A68102A01D0112A43
:1015300020D1124B02689A4217D193681B0219D42A
:10154000936843F4000393600968102912D10C4991
:101550000C4A0968B1FBF2F101EB8101490000E09E
:10156000491E00910029FBD104E0816A41F020016D
:101570008162012480F824502046F8BD00240140F7
:101580001000002040420F00704770B5044600680C
:1015900006684568A90625D5B10723D5A16AC906FD
:1015A00003D4A16A41F40071A1628168C1F3424190
:1015B000072910D1217B71B9416821F020014160D8
:1015C000A06A20F48070A062A06AC00403D4A06A5C
:1015D00040F00100A0622046FFF7D6FF21686FF0BF
:1015E0001200086028062ED570072CD5A06AC00608
:1015F00003D4A06A40F40050A06220688168C1F35F
:101600000231072909D04168490515D48168C1F321
:101610004241072910D1217B71B9416821F0800135
:101620004160A06A20F48050A062A06AC00503D483
:10163000A06A40F00100A0622046FFF725FF216864
:101640006FF00C00086068060CD5F0070AD0A06A9D
:1016500040F48030A062204600F096F821686FF0D8
:101660000100086070BD00002DE9F04104004FF05A
:1016700000057FD0A06A002628B9E66284F82460BD
:10168000204600F083F82046FFF74CF8A16AC9060F
:1016900000D420B1A06A40F01000A0626AE0A16A04
:1016A00021F4885141F00201A162334923688B4241
:1016B000E16904D1B1F5402F01D14FF40021277B1E
:1016C0004FF4807C41EA470261680A43A1686145A2
:1016D00008D0012906D0002194F814E0BEF1010FD2
:1016E00002D00AE06146F7E7C7B1A76A47F02007D2
:1016F000A762E76A47F00107E7625F6827F4694776
:101700000F435F60236899681C4F3940114399600B
:10171000A16861450BD0012909D00CE0DFF860E039
:10172000A7690EEB47370F4347F40061E5E7218ACD
:101730000D05A5F580152168CB6A23F470032B43B2
:10174000CB62216889680F4B1940914208D1E6624B
:10175000A16A21F0020141F00101A162BDE8F0811E
:10176000A06A20F0020040F01000A062E06A40F0A1
:101770000100E0620120F1E7003C0140FDF7E1FFDC
:1017800000E0FFFFFE0E1FFF7047000070B586B03F
:1017900000250646009501950295039500681D49B0
:1017A000884235D11C49886940F400708861886995
:1017B00000F400700490886940F004008861886932
:1017C000694600F004000490072000900320019077
:1017D000124800F06BFA134C1148C4E90005802050
:1017E000C4E90250400020618000C4E9050520469C
:1017F000E56100F0FDF908B1FFF7C6F83462002298
:1018000005211220666200F089FE122000F078FEA9
:1018100006B070BD002401400010024000080140E5
:10182000080002409000002010B590F8211000221E
:10183000022905D00421816380F82020012010BDF9
:1018400001680B6823F00E030B6001680B6823F03E
:1018500001030B6090F84030C46B012101FA03F3DF
:10186000636080F8211080F82020104610BD000031
:101870002DE9F05F90F821100024022903D0042103
:101880008163012485E001680A6822F00E020A6083
:1018900001680A6822F001020A603F4E3E4FB2150D
:1018A000DFF8F4C0DFF8F090DFF8ECA0DFF8E8B084
:1018B000DFF8E4E00168783F13011502ACF1640C35
:1018C000A9F15009AAF13C0AABF1280BAEF1140EB4
:1018D0004FF48018B14227D9B9420ED0614512D0D9
:1018E00049451DD0514518D0594518D0714501D1F1
:1018F000424615E0294EB14201D1012210E0274EA7
:101900001436B14201D110220AE0244E2836B142E9
:1019100006D0224A3C32914201D11A4600E02A46C2
:101920001E49091F0A602BE0B94213D0614517D048
:10193000494522D051451DD059451DD0714501D191
:1019400042461AE0B14202D14FF0807215E0134EC8
:10195000B14201D1012210E0104E1436B14201D142
:1019600010220AE00D4E2836B14206D00B4A3C3216
:10197000914201D11A4600E02A46074980394A605F
:10198000012180F82110002180F82010416B01B165
:1019900088472046BDE8F09F8000024008040240CE
:1019A00090F82100704700002DE9F05FC16B0A68D4
:1019B00001680B68046C4FF0040808FA04F8844DC1
:1019C000844E854FDFF814C2DFF81492DFF814A2BA
:1019D000DFF814B2DFF814E218EA020F65D05FEA0C
:1019E000437862D50A68920603D40A6822F004029A
:1019F0000A60DFF8F0814FF48062016808F1140892
:101A000013011402414524D9A9420DD0B1420FD08F
:101A1000B9421AD0614515D0494515D0514501D17B
:101A2000120312E0594501D104220EE0714501D1A3
:101A300040220AE06D4D1435A94206D06B4A283287
:101A4000914201D11A4600E022466749091F0A6007
:101A500029E0A94213D0B14215D0B94220D0614546
:101A60001BD049451BD0514502D14FF4800217E0ED
:101A7000414502D14FF0806212E0594501D1042264
:101A80000EE0714501D140220AE0584D1435A942BB
:101A900006D0564A2832914201D11A4600E0224629
:101AA0004B4908394A60C16A71E04FF0020808FAF0
:101AB00004F818EA020F70D05FEA83786DD50A68DF
:101AC000920606D40A6822F00A020A60012180F810
:101AD0002110DFF810814FF40072016808F114083A
:101AE00013011402414524D9A9420DD0B1420FD0AF
:101AF000B9421AD0614515D0494515D0514501D19B
:101B0000120312E0594501D102220EE0714501D1C4
:101B100020220AE0354D1435A94206D0334A283236
:101B2000914201D11A4600E022462F49091F0A605E
:101B300029E0A94213D0B14215D0B94220D0614565
:101B40001BD049451BD0514502D14FF4001217E07C
:101B5000414502D14FF0007212E0594501D10222F5
:101B60000EE0714501D120220AE0204D1435A94232
:101B700006D01E4A2832914201D11A4600E0224680
:101B8000134908394A60002180F82010816A002931
:101B90001CD0BDE8F05F0847FFE70825A5401542C7
:101BA00014D01A0712D50A6822F00E020A6090F8C3
:101BB0004020C36B012101FA02F25A60816380F870
:101BC0002110002180F82010016BE0E7BDE8F09FB4
:101BD000080002401C000240300002404400024065
:101BE000580002406C000240080402401C040240FD
:101BF00030B560B11A4B026814219A4209D2194BD0
:101C00001344B3FBF1F18900016417490AE0012094
:101C100030BD134B5B421344B3FBF1F18900016407
:101C20000F490839C163022180F82110136843F677
:101C3000F0718B43F0E901142143D0E902452C43B4
:101C400021430469214344692143846921431943A1
:101C5000116000214163012242770177084630BDBF
:101C600008040240F8FFFDBF0000024070B50446C2
:101C700000F022F90546601C02D0044800780444B4
:101C800000F01AF9401BA042FAD370BD04000020F6
:101C9000FEF7E8BE044910B50A68024202D00860A7
:101CA000FFF7F6FF10BD0000140401402DE9F84FC6
:101CB000DFF8C8910024A9F1040B23460F2709F18E
:101CC000040AABF1040ED1E00125A54006EA0502A5
:101CD000AA4276D1DFF8A8C14E68A6EB0C0866458B
:101CE0002BD00DDC032E34D005DC36B3012E19D0F9
:101CF000022E2FD11BE0112E16D0122E2AD119E060
:101D0000B8F5881F19D006DCB8F5803F15D0B8F5B6
:101D1000801F1FD111E0B8F5001F0ED0B8F5041FC9
:101D200018D10AE0CB6815E0CB681B1D12E0CB6828
:101D300008330FE0CB680C330CE08B682BB1012B20
:101D40004FF0080303D0456104E0042302E005617D
:101D500000E00023FF2A01D8064601E000F1040656
:101D60004FEA840501D9A5F12005D6F8008007FACD
:101D700005FC28EA0C0803FA05F548EA0508C6F848
:101D800000804D68ED0070D53E4DAE6946F001060D
:101D9000AE61AD6924F0030605F0010500953A4DEA
:101DA00006EB050CDCF80850A607360F07FA06F814
:101DB00025EA0805DFF8D480404503D14FF000083C
:101DC00025E052E0DFF8C880404502D14FF001081D
:101DD0001DE0DFF8C080404502D14FF0020816E058
:101DE000DFF8B480404502D14FF003080FE0DFF880
:101DF000AC80404502D14FF0040808E0DFF8A08035
:101E0000404502D14FF0050801E04FF0060808FAFE
:101E100006F848EA0508CCF808804D68D9F8006053
:101E2000ED024D4601D5164300E096432E604D6805
:101E3000DAF80060AD02554601D5164300E096433E
:101E40002E604D68DBF80060AD035D4601D516439A
:101E500000E096432E604D68DEF80060ED037546A5
:101E600001D5164300E096432E60641C0A681646AE
:101E7000E2407FF429AFBDE8F88F0000080401407C
:101E80000000111000100240000001400008014055
:101E9000000C0140001001400014014000180140F6
:101EA000001C01408068084000D0012070470AB142
:101EB000016170470904FBE7014880687047000032
:101EC00004000020704770472DE9F0410168044686
:101ED0004A694E6890F83E000025D743FA050BD4B6
:101EE000F243D20508D46FF4807201254A6121685B
:101EF0000A6842F400420A60B90508D4F143C905F2
:101F000005D422686FF4007145F00205516179052E
:101F100025D4F143C90522D4638D94F83D10226B7A
:101F2000202808D13BB9212910D029290ED02829F1
:101F300001D1212A0AD022686FF48061516145F0F5
:101F40000405102806D0402804D008E0204601F0FF
:101F5000C1FF04E02068016841F4007101603805A8
:101F600008D4F043C00505D421686FF4006045F043
:101F700008054861002D07D0206C284320642046C6
:101F8000BDE8F04101F00ABCBDE8F0812DE9F04761
:101F9000026800215368C66A90F83E4090F83D50B0
:101FA000102C12D0402C10D0046C002C7DD0546921
:101FB000E443A6077AD4DE43B60577D4036C03B1B5
:101FC0009169BDE8F04701F061BF976951694FF42D
:101FD0002A0CC9435FEAC1784FF02A4904D066450C
:101FE0002AD04E4528D010E0DE43B6050DD4C16A94
:101FF000614501D1012103E0C16A494501D10821B0
:10200000C162BDE8F04701F0A7BE0E0716D4DE435B
:10201000B60513D4416CC9B21161416B09B1896A2B
:1020200029B9816B002907D0896A002904D000688A
:10203000416841F400614160BDE8F0878E0706D435
:10204000DE43B60503D4BDE8F04701F0D9BDFE4339
:10205000526876074FEA02521DD4002AECDB0A06CA
:1020600008D4DA43520505D4490705D5BDE8F04741
:1020700001F06ABD4907DFD4D9438905DCD4212D9D
:1020800005D0402CD8D1BDE8F04701F0ABBEBDE88B
:10209000F04701F017BD002ACEDB4A060BD4DA4325
:1020A000520508D4490708D501E00DE00EE0BDE86F
:1020B000F04701F08DBC4907BED4D9438905BBD494
:1020C000BDE8F04701F016BC916970E7E10606D45F
:1020D000D943890503D4BDE8F04701F043BF282167
:1020E000212D27D0292D25D0650655D4DD436D053A
:1020F00052D4640752D590F83D30448D002C9BD0CB
:102100001269446A2270426A521C4262428D521E17
:102110004285428D002A8FD12A2B8DD102685368C7
:1021200023F4806353602222026380F83D1000F0A4
:102130004FF981E7250623D4DD436D0520D46407DC
:1021400020D590F83D30448D002CF2D0446A24789C
:102150001461426A521C4262428D521E4285428D77
:10216000002AE6D1292BE4D10268536823F4806366
:1021700053602122026380F83D1000F02AF95BE7EA
:102180006107D6D4D9438905D3D4418D0029D0D055
:10219000416A097811610AE06107CAD4D943890507
:1021A000C7D4418D0029C4D01169426A1170416AB7
:1021B000491C4162418D491E41853DE77047000041
:1021C00070B5040025D094F83D00002520B984F8AE
:1021D0003C50204600F0BEF8242084F83D002068E2
:1021E000016821F0010101602068016841F40041AB
:1021F00001602068016821F40041016000F0DCFA10
:102200004D4A6168914201D84C4900E04C498842EE
:1022100001D2012070BD4B492368B0FBF1F15E682B
:1022200026F03F060E435E606368934206D94FF482
:10223000967359434FF47A73B1FBF3F12368491C49
:102240001E6A26F03F06314319626168914210D838
:102250004900401EB0FBF1F2521CC2F30B02042AEB
:1022600001D2042022E0B0FBF1F0401CC0F30B00CF
:102270001CE0A268F2B301EBC10303EB0116431E9D
:10228000B3FBF6F35B1C43F480431B0549D092B3C8
:1022900001EBC10202EB0111401EB0FBF1F0401C4A
:1022A000C0F30B0040F4804040F400402168CA694C
:1022B0004CF6FF739A431043C861D4E907100143F9
:1022C0002068026822F0C00211430160D4E90301D2
:1022D00001432068826848F2FF339A4311438160CA
:1022E000D4E9050108432168CA6822F0FF021043BF
:1022F000C86001E00EE016E02068016841F00101CD
:1023000001602564202084F83D00256384F83E5058
:10231000002070BD01EB4106431EB3FBF6F35B1CCE
:10232000B3E70120C2E701EB4101401EB0FBF1F031
:10233000401CC0F30B00B7E7A086010080841E009C
:1023400000093D0040420F007047704770477047DA
:102350007047000010B586B00021009101910291F4
:1023600003910068174988422AD1174CA06940F0B0
:102370000800A061A069694600F008000490C02030
:10238000009012200190032003901048FFF78EFC6C
:10239000E06940F40010E061E069002200F4001000
:1023A000049005211F2000F0B9F81F2000F0A8F8C4
:1023B00000220521202000F0B1F8202000F0A0F834
:1023C00006B010BD0054004000100240000C014057
:1023D0007047704770B5040013D021684CF6CC40AC
:1023E0000860216845F255500860D4E90001416059
:1023F0002168A0688860FFF75FFD054641F23C3622
:102400000DE0012070BD00BFFFF756FD401BB0423C
:1024100005D92068C068800701D0032070BD2068FE
:10242000C0688007F0D121684AF6AA200860002021
:1024300070BD00684AF6AA210160002070470000C4
:1024400002488168027811448160704704000020CE
:10245000074810B5016841F010010160032000F049
:102460007DF8012000F006F800F024F8002010BDEF
:102470000020024070B50D4D04464FF47A71287863
:10248000B1FBF0F00A490968B1FBF0F000F078FC0C
:1024900048B9102C07D200222146501E00F03EF809
:1024A00000206C6070BD012070BD000004000020A1
:1024B00010000020104808B5816941F001018161D8
:1024C000816901F001010091C16941F08051C16150
:1024D000C069002200F0805000900421012000F02B
:1024E0001DF8012000F00CF80448416821F0E0617B
:1024F00041F00071416008BD001002400000014041
:10250000002809DB00F01F020121914040098000F2
:1025100000F1E020C0F8001170470000F0B40E4B4D
:102520001B680C46C3F30223C3F10705042D00D931
:102530000425191D072901D2002300E0DB1E012616
:1025400006FA05F1491E214099409E40761E16402C
:102550003143F0BC02F0E8BA0CED00E0064900F0AF
:10256000070208684FF6FF03184040EA0220034ABA
:1025700010430860704700000CED00E00000FA0511
:102580007047000010B5054C2068C00304D5FFF764
:10259000F7FF4FF48030206010BD000014040140AC
:1025A0002DE9F84305460078354CC00754D0E06962
:1025B0000026C00008D4E06940F08050E061E06986
:1025C000012600F0805000902E480168C90512D401
:1025D0000168804641F480710160FFF76DFC074699
:1025E00005E000BFFFF768FCC01B642823D8D8F8BB
:1025F0000000C005F6D5206A10F4407021D0A988EB
:1026000001F4407181421CD0206A1F49012220F44C
:1026100040700A6000220A602062C00711D0FFF7F4
:102620004BFC074641F2883808E000BFFFF744FC46
:10263000C11B414502D90320BDE8F883206A800709
:10264000F4D5206A696820F44070084320621EB106
:10265000E06920F08050E0612878800705D5606847
:10266000A96820F44040084360602878C00605D57A
:102670006068696920F48000084360600020DBE73F
:102680000010024000700040400442422DE9F04733
:102690000F46050061D0434E306800F00700B84295
:1026A00009D2306820F0070038433060306800F00D
:1026B0000700B84251D128683B4C810712D540072A
:1026C00003D5606840F4E06060602878000703D5B7
:1026D000606840F4605060606068A96820F0F000B5
:1026E000084360602878C00728D06868012810D0A7
:1026F0002168022810D0890700292EDA616821F0AC
:10270000030101436160FFF7D7FB804641F288393E
:102710000DE021688903EFE78901EDE7FFF7CCFBC6
:10272000A0EB0801494502D90320BDE8F0876068A5
:10273000696800F00C00B0EB810FEFD1306800F059
:102740000700B8420BD9306820F0070038433060EA
:10275000306800F00700B84201D00120E5E7287892
:10276000400705D56068E96820F4E06008436060D0
:102770002878000706D56068296920F4605040EA8F
:10278000C100606000F038F86168084AC1F30311C5
:10279000515CC8400649086006480068FFF76AFEB9
:1027A0000020C2E70020024000100240A2570008AB
:1027B000100000200800002004480549006849680E
:1027C000044AC1F30221515CC84070471000002048
:1027D00000100240B25700080448054900684968E3
:1027E000044AC1F3C221515CC84070471000002068
:1027F00000100240B25700080E4A51680E4801F01E
:102800000C03042B11D0082B0FD10C48C1F38343C8
:10281000C903C05C0AD55168084AC1F34041921E01
:10282000515C054A5043B0FBF1F0704704494843FE
:10283000704700000010024000127A009257000812
:1028400000093D002DE9F84F040070D02078C04DFC
:10285000C00749D06868C0F38100012807D06868C4
:10286000C0F38100022809D16868C00306D5286832
:10287000800339D560680028E7D035E06068B0F59E
:10288000803F0BD010B1B0F5A02F11D0286820F4F4
:1028900080302860286820F4802002E0286840F416
:1028A00080302860606890B1FFF706FB06460AE0BA
:1028B000286840F480202860F0E700BFFFF7FCFAAA
:1028C000801B642873D828688003F7D50CE0FFF7D5
:1028D000F3FA064605E000BFFFF7EEFA801B642816
:1028E000F0D828688003F7D420789A4E80074FF0FC
:1028F00001094FF0000839D5686810F00C0F07D0B7
:102900006868C0F38100022809D16868C00306D452
:102910002868800714D52069012808D110E02069B3
:10292000B0B1C6F80090FFF7C7FA074605E00AE124
:10293000FFF7C2FAC01B0228C4D828688007F7D561
:102940002868616920F0F80040EAC10028600DE0C5
:10295000C6F80080FFF7B0FA074604E0FFF7ACFACC
:10296000C01B022823D828688007F7D420780007E6
:102970002CD57948A169D9B1C0F80090FFF79CFA2D
:10298000074604E0FFF798FAC01B02280FD8686AD0
:102990008007F7D571484FF4FA510068B0FBF1F0A9
:1029A000009000BF0098411E0091FAD20EE080E036
:1029B000C0F80080FFF780FA074604E0FFF77CFAD2
:1029C000C01B022875D8686A8007F7D420784007B2
:1029D00060D5E8690027C00008D4E86940F080505D
:1029E000E861E869012700F0805000905C480168C8
:1029F000C90513D40168834641F480710160FFF773
:102A00005BFA824606E000BFFFF756FAA0EB0A0029
:102A100064284ED8DBF80000C005F5D5E068012831
:102A20000AD008B1052813D0286A20F001002862D6
:102A3000286A20F0040002E0286A40F001002862C1
:102A4000E06841F2883B98B1FFF736FA82460BE026
:102A5000286A40F004002862EEE700BFFFF72CFA76
:102A6000A0EB0A0159455AD8286A8007F6D50CE030
:102A7000FFF722FA824605E0FFF71EFAA0EB0A01F3
:102A800059454CD8286A8007F6D41FB1E86920F070
:102A90008050E861E06988B36968C1F38101022967
:102AA00044D00228C6F8608004D0FFF705FA044637
:102AB00038E034E0FFF700FA074604E0FFF7FCF9DE
:102AC000C01B02282BD828688001F7D4206AB0F5F3
:102AD000803F05D16868A16820F400300843686031
:102AE000D4E908010843696821F474110843686057
:102AF000C6F86090FFF7E0F9044606E025E000BF65
:102B0000FFF7DAF9001B022809D828688001F7D5F9
:102B10001BE000BFFFF7D0F9001B022802D90320F9
:102B2000BDE8F88F28688001F4D40EE00128F7D0C2
:102B30006868226A00F48031914204D1616A00F42D
:102B40007010884201D00120EAE70020E8E7000089
:102B50000010024000004242800442421000002067
:102B6000007000407047000038B5044600684268B5
:102B70008168C9434B0606D5CB0704D1D3435B0616
:102B800001D4216C05E08B0708D4D3431B0605D480
:102B9000616C01B02046BDE8304008478B0601D586
:102BA0004B0646D4D3439B0643D44B060AD494F831
:102BB0005130032B3ED0636D43F004036365C3685B
:102BC00083680093890609D4616D41F00101616554
:102BD00081680091016821F040010160606D00286A
:102BE00027D02068416821F0E0014160012084F88D
:102BF0005100900722D02068416821F00301416014
:102C0000104DE06C40B14563E06CFEF731FE18B149
:102C1000606D40F040006065A06C002809D04563FD
:102C2000A06CFEF725FE002803D0606D40F0400048
:102C3000606538BDC1688068009038BD2046FFF7E8
:102C400091FF38BD1945000870B5040009D0606ACD
:102C5000002540B125616561A56294F8510040B13D
:102C60000CE0012070BD6068B0F5827FF4D0E561B2
:102C7000F2E784F85050204600F040F8022084F833
:102C800051002068016821F040010160A08821897D
:102C900000F4827001F404410843A18901F4006149
:102CA0000843217C01F002010843217D01F001016C
:102CB0000843218B01F400710843217F01F03801A2
:102CC000084394F8201001F080010843218D01F49D
:102CD0000051084321680860A069042101EA1040FE
:102CE000216848602068C16921F40061C16165659F
:102CF000012084F85100002070BD000030B585B07F
:102D000000240094019402940394006819498842B5
:102D10002DD11948C16941F48041C161C16901F4F3
:102D200080410491816941F0080181618069134DFE
:102D300000F0080004904FF4204000900220019021
:102D40000320039069462846FEF7B0FF4FF4804009
:102D5000CDE90004694628460294FEF7A7FF002249
:102D600011462420FFF7DAFB2420FFF7C9FB05B04A
:102D700030BD00000038004000100240000C01404F
:102D800010B5401EB0F1807F01D3012010BD4FF07F
:102D9000E02460610F21601701F0C6FE0020A061F1
:102DA00007202061002010BD7047704770B590F873
:102DB0003C20012A2CD0012480F83C40022280F8DB
:102DC0003D2003685A689D6822F070060A68324305
:102DD0005A60104B02689A420ED00F4B9A420BD0A9
:102DE000B2F1804F08D00D4B9A4205D00C4B9A425D
:102DF00002D00C4B9A4204D1496825F08003194354
:102E0000916080F83D40002180F83C10084670BD7C
:102E1000022070BD002C014000340140000400403D
:102E200000080040000C004010B5040003D094F8E6
:102E30003D0010B107E0012010BD002084F83C00E7
:102E4000204600F01FF8022084F83D00211D206874
:102E500001F0AEFB012084F8460084F83E0084F8BF
:102E60003F0084F8400084F8410084F8420084F870
:102E7000430084F8440084F8450084F83D000020B5
:102E800010BD000008B500680B49884212D10B48FC
:102E9000C16941F00201C161C069002200F0020075
:102EA000009011461D20FFF739FBBDE808401D20AA
:102EB000FFF726BB08BD00000004004000100240E0
:102EC00070B5044690F83C000025012817D0012673
:102ED00084F83C60022084F83D002068826822F07B
:102EE000770222F47F4282600868502838D00DDCD7
:102EF00020284FD005DC90B3102811D14AE00220E1
:102F000070BD302846D040280AD13BE060282FD041
:102F100070280DD0B0F5805F03D0B0F5005F12D0FF
:102F2000012584F83D60002084F83C00284670BDEF
:102F3000CB68D1E90121206801F088FB2068816815
:102F400041F0770109E0CB68D1E90121206801F067
:102F50007DFB2068816841F480418160E1E719E0F0
:102F6000CA684968206801F045FC5021206806E0E5
:102F7000CA684968206801F04EFC6021206801F0B1
:102F80006FFBCEE7CA684968206801F033FC402136
:102F90002068F4E7226801461046F0E770472DE903
:102FA000F04104460068C66805694FF00007A907AC
:102FB00013D5B10711D5F91E0161012020772068D2
:102FC00080698007204602D0FFF7E8FF04E000F0A8
:102FD000A5F8204600F037F92777680716D570075F
:102FE00014D521686FF00400086102202077206862
:102FF000806910F4407F204602D0FFF7CFFF04E045
:1030000000F08CF8204600F01EF92777280715D528
:10301000300713D521686FF008000861042020777D
:103020002068C0698007204602D0FFF7B7FF04E0A0
:1030300000F074F8204600F006F92777E80616D568
:10304000F00614D521686FF0100008610820207781
:103050002068C06910F4407F204602D0FFF79EFF31
:1030600004E000F05BF8204600F0EDF82777E80771
:1030700008D0F00706D021686FF0010008612046F3
:1030800000F0E2F8280608D5300606D521686FF072
:10309000800008612046FFF787FE680608D57006A5
:1030A00006D521686FF040000861204600F0CDF899
:1030B000A8060AD5B00608D521686FF0200008617F
:1030C0002046BDE8F041FFF770BEBDE8F08100008A
:1030D00000B585B000210091019102910391006833
:1030E0000B49884211D10B48816941F0040181618B
:1030F0008069694600F0040004904020009002209E
:10310000019003900448FEF7D1FD05B000BD00001A
:10311000000400400010024000080140704770B5F4
:10312000044690F83C0000260D4601280FD00120EF
:1031300084F83C006AB1042A1DD0082A2FD00C2A3A
:103140003FD00126002084F83C00304670BD0220AC
:1031500070BD206801F08CFA2068816941F0080197
:1031600081612068816921F00401816120688169A1
:103170002A69114311E0206801F0AAFA20688169E8
:1031800041F4006181612068816921F4806181617D
:10319000206881692A6941EA02218161D2E72068B9
:1031A00001F0CCFA2068C16941F00801C1612068D2
:1031B000C16921F00401C1612068C1692A69114314
:1031C00011E0206801F0EEFA2068C16941F4006165
:1031D000C1612068C16921F48061C1612068C16951
:1031E0002A6941EA0221C161ACE710B5040003D0AD
:1031F00094F83D0010B107E0012010BD002084F8D4
:103200003C00204600F01EF8022084F83D00211DFD
:10321000206801F0CDF9012084F8460084F83E00D2
:1032200084F83F0084F8400084F8410084F84200AC
:1032300084F8430084F8440084F8450084F83D0095
:10324000002010BD70477047704770477047704747
:10325000F8B5016804460868CA684B6910F00F0F9A
:103260004FF0000559D003F0010602F49077374380
:1032700065D0C10705D0D10503D5616C41F00101CE
:103280006164410705D5D90703D0616C41F00201A3
:103290006164810705D5D90703D0616C41F0040151
:1032A0006164010707D502F02001314303D0616C4E
:1032B00041F008016164616C00293AD0800604D5B0
:1032C000900602D5204601F0E7FA20684069616C5B
:1032D000C0F38010090700D460B3204601F0B5FAAE
:1032E00020684069400621D52068143050E8001F4E
:1032F00021F0400140E80012002AF5D1E06BA8B1AE
:103300006D494163E06BFEF7B3FA002811D0E06B22
:10331000416B01B0BDE8F040084783060FD5930626
:103320000DD52046BDE8F84001F0B6BA2046FFF7BB
:103330008EFFF8BD2046FFF78AFF6564F8BD266B57
:103340002023012E7CD1C6067AD5D60678D508680A
:103350004868009048694FF00206400640D5E16B8E
:10336000086840680004000CE8D0A28D8242E5D9CC
:10337000E085886920282DD020680C3050E8001F97
:1033800021F4807140E80012002AF5D12068143041
:1033900050E8001F21F0010140E80012002AF5D199
:1033A0002068143050E8001F21F0400140E800126E
:1033B000002AF5D184F84230256320680C3050E8AB
:1033C000001F21F0100140E80012002AF5D1E06B47
:1033D000FEF72AFA6663A08DE18D401A81B22AE0D9
:1033E000A08DE18D401A81B2E08D0028A6D0002981
:1033F000A4D022680C3252E8000F20F4907042E80A
:103400000007002FF5D12068143050E8002F22F07B
:10341000010240E80027002FF5D184F842302563EF
:1034200020680C3050E8002F22F0100240E8002302
:10343000002BF5D166632046FFF708FFF8BDFFE7D4
:1034400005062BD5150629D594F841002128F5D17C
:10345000A068B0F5805F01D12069B0B1206A411C3D
:103460002162216800784860E08C401E0004000C56
:10347000E084E3D12068C16821F08001C160206848
:10348000C16841F04001C160D8E7206A0088C0F3FC
:1034900008004860206A801C2062E5E74006CDD520
:1034A0005006CBD5CA68204622F04002CA6084F894
:1034B000413000F0FEF8C1E73B48000870B5040059
:1034C00004D094F84100002510B106E0012070BD41
:1034D00084F84050204600F023F8242084F841006E
:1034E0002068C16821F40051C160204601F036FA1D
:1034F0002068016921F4904101612068416921F04F
:103500002A0141612068C16841F40051C1606564CD
:10351000202084F8410084F842006563002070BDDB
:1035200070B586B00024009401940294039403685B
:103530003248314E022103220515B34226D1836958
:1035400043F480438361836903F480430493836974
:1035500043F0040383618069294E00F00400049065
:103560000802CDE90001039269463046FEF79EFB52
:10357000CDE90054694630460294FEF797FB0022DD
:1035800001212520FEF7CAFF252031E01D4EB34260
:1035900030D1C36943F48023C361C36903F480233A
:1035A0000493836943F0100383618069CDE900517E
:1035B00000F01000CDE90320134D69462846FEF7C0
:1035C00075FBE814CDE90004694628460294FEF72D
:1035D0006DFB0E48416821F0300141F0E06141F09F
:1035E00010014160002201212720FEF797FF2720CC
:1035F000FEF786FF06B070BD0038014000100240A3
:103600000008014000480040001001400000014057
:1036100070472DE9F843044690F841009846164655
:103620000D46202802D00220BDE8F88385B17EB186
:1036300000206064212084F84100FEF73DFCA68450
:103640008146E684A0682027B0F5805F02D003E0C1
:103650000120E9E7206910B12E4600250EE0002682
:103660000CE08021204601F0D5F9A8B9C6B116F8C2
:10367000010B21684860E08C401EE084E08C4B46E2
:103680004FF00002CDF800800028EAD14FF0400151
:10369000204601F0BFF940B184F841700320C3E730
:1036A00035F8020BC0F30800E3E784F8417000200E
:1036B000BAE77047FEE700000148FEF705BC0000CE
:1036C000D40000200148FEF761BC0000D4000020B7
:1036D00038B5406A002190F83D202B4B46F2A814E3
:1036E0001B68B3FBF4F3C3EBC30303EB8303009347
:1036F0003BB15B1E009303681B689B0505D5009BCF
:10370000F6E7036C43F020030364436B03B1996253
:10371000836B03B1996203681C6824F480641C60A5
:103720004185436B03B15963836B03B159630368EC
:103730001C6824F001041C6090F83D402023602C9C
:103740000BD0282434EA02020FD080F83D3080F8F4
:103750003E1000BFFEF732FD38BD80F83D3080F8E6
:103760003E100164FEF7AEFB38BD0268136843F0FB
:10377000010313600268136843F4806313600163FC
:1037800080F83D40E6E70000100000200068416935
:10379000C943090601D400210161704770B5044690
:1037A00090F83D0094F83E10102901D0402906D130
:1037B000222804D121680A6822F400620A602821C4
:1037C00031EA00024FF000054FF0200626D02168B4
:1037D0004968090505D4602803D084F83D6084F861
:1037E0003E50256320684168090537D5416821F4BA
:1037F00000614160606B90F821203C49012A11D0A2
:103800004163606BFEF734F838B32068016821F03B
:103810000101016084F83D60606B1CE0256384F861
:103820003D10DFE7A06B4163A06BFEF721F8A0B16C
:1038300020684169C943490605D40069616A087076
:10384000606A401C60622068016821F0010101602B
:1038500084F83D60A06B416B884710E094F83D1000
:10386000602910D04169C943490605D40069616ADD
:103870000870606A401C60622046FEF79FFC206C66
:10388000C1071CD115E084F83D6025644169C94336
:10389000490605D40069616A0870606A401C60626C
:1038A0002068016821F0010101602046FEF70AFB53
:1038B000E5E7810703D4410701D4000704D5206858
:1038C000416821F4E061416094F83D00216C4907B2
:1038D0000BD5282809D10648E062256384F83D60AD
:1038E00084F83E502046FEF72FFD70BDD13600080B
:1038F0000000FFFF10B5C26A438D0168042B06D09B
:10390000438D032B08D0438D022B1DD012E04A6853
:1039100022F480624A600CE04B6823F480634B60C1
:10392000042A06D0022A04D001680A6822F48062C0
:103930000A6001680969426A1170416A491C416262
:10394000418D491E418510BD012A34D0102A32D044
:10395000042A34D0022A32D00B6843F400730B607F
:1039600001680969436A1970416A491C4162438DC3
:103970005B1E438503681B690B70416A491C4162E9
:10398000418D491E418501684B6823F440734B60AB
:10399000202180F83D1090F83E300021402B80F827
:1039A0003E1010D0082A02D0202A00D01221016334
:1039B000FEF7CBFC10BD0B6823F48063CFE70B68E8
:1039C00043F48063CBE70163FEF7C1FC10BD000048
:1039D00038B590F83D10222910D1C36A418D0329D2
:1039E0000DD901680969426A1170416A491C416236
:1039F000418D491E4185418D032906D038BDC26ADB
:103A0000022A02D0012906D029B10068416821F4B8
:103A10008061416038BD2A4A46F2A814002112682C
:103A2000B2FBF4F202EB8202009202682024009DB5
:103A30006D1E009526D01568AD05F8D4156825F4DF
:103A4000806515600268556825F4E0655560026878
:103A50001269456A2A70426A521C4262428D521EA5
:103A6000428580F83D4090F83E2080F83E10402A84
:103A700021D0082B02D0202B00D012210163FEF7A9
:103A800064FC38BD036C43F020030364536823F4E3
:103A9000E063536002681269436A1A70426A521CFA
:103AA0004262428D521E428580F83D4080F83E10B1
:103AB000FEF784FB38BD0163FEF749FC38BD00000A
:103AC0001000002010B5C26A90F83D1021290BD1DA
:103AD000418D51B1416A026809781161416A491CFE
:103AE0004162418D491E418510BD20230021082AD5
:103AF00013D0202A11D012F5803F0ED002685468EE
:103B000024F4E06454601122026380F83E1080F8CF
:103B10003D3000BFFEF71AFC10BD0268546824F463
:103B2000E06454600268146844F400741460016333
:103B300080F83D3090F83E2080F83E10402AE9D1D0
:103B4000FEF706FC10BD000010B590F83D1090F88F
:103B50003E30C26A048DB4B1212903D0402B11D16B
:103B600022290FD1418DE1B390F83E10402942D077
:103B7000416A026809781161416A491C4162418DBC
:103B8000491E418510BD2129E8D120230021082AA2
:103B900013D0202A11D012F5803F0ED0026854684D
:103BA00024F4E06454601122026380F83E1080F82F
:103BB0003D3000BFFEF7CAFB10BD0268546824F414
:103BC000E06454600268146844F400741460016393
:103BD00080F83D3090F83E2080F83E10402AE9D130
:103BE00000E002E0FEF7B4FB10BD0068416821F47C
:103BF0008061416010BDBDE8104000F0F3B80000E6
:103C000078B590F83E50C26A046B90F83D6000238E
:103C10000168222E73D1066D0EB9402D6FD0056D4F
:103C20001DB90569B5F5404F1BD0458D95B3468D3F
:103C3000484D012E20D0448D022C4DD00C6844F408
:103C400080640C6001684C68240579D5AA4273D061
:103C5000012A71D0082A6FD0102A6DD0202A6BD08B
:103C60006EE04A698A6900920A6842F480720A60CA
:103C7000016D491C016578BDAA4214D10A6822F47D
:103C800080620A6001684A68120504D50A6822F455
:103C9000806217E0FFE74A698A6900920A6842F485
:103CA00000720A6050E0082A10D0202A0ED0122C90
:103CB0000AD0042A03D0022A01D0102AE6D10A68C9
:103CC00042F480620A603BE0012ADFD00A6822F4F5
:103CD00080620A600168DEE7042A11D0022A0FD050
:103CE000102A0DD00C6844F400640C6001684C6923
:103CF0008C6900940C6824F480640C6008E025E072
:103D00000C6844F480640C6001684C698969009116
:103D100001684C68240517D5AA4207D0012A05D0AE
:103D2000082A03D0102A01D0202A0DD14A6842F473
:103D300080524A6008E0FFE74A6842F480524A60D5
:103D400001684A6989690091036578BD4869886995
:103D5000009078BD0000FFFF90F83E10402910D081
:103D60000169B1F5804F19D0016DA9B3016D012929
:103D700010D1416C5FF0F10201F4407142EAD111BF
:103D800006E0016D0029416C05D0C9B241F0010186
:103D900000680161704701F0FE01F9E790F83D10FD
:103DA0002129416C09D0C9B241F0010102681161B9
:103DB000416B29B1896A49B902E001F0FE01F5E7DA
:103DC000816B0029E6D0896A0029E3D00068416848
:103DD00041F4006141607047FFE7416CF02201F45B
:103DE0004071CBE710B590F83D10026D4AB1026DFD
:103DF000012A14D0026D022A16D0BDE81040FFF748
:103E0000C5BCC16C0129816C02D0C1F3072108E057
:103E10000268C9B21161016D891C016510BD816C18
:103E2000C9B20268116123E022291CD0428D0AB177
:103E3000212920D0428D002AF0D12129EED101681C
:103E40004A6822F4E0624A6001680A6842F400723B
:103E50000A6000210163202280F83D2080F83E1096
:103E6000FEF776FA10BD01680A6842F480720A60B3
:103E7000016D491CD1E7416A026809781161416A04
:103E8000491C4162418D491E418510BD38B50C4623
:103E900090F83D2000212825954302680B4605D067
:103EA00051699169009180F83C3038BD556825F41E
:103EB00080655560E243540700D50121120601D503
:103EC000828900E0028B80F83C3092B2FDF7FBFF64
:103ED00038BD00002DE9F04190F83D300446C26A3B
:103EE000002120261E4F00686FF48065082A01D04B
:103EF000202A01D1282B04D0212B17D04561BDE801
:103F0000F081E762426822F4E06242602068456125
:103F10002068026822F480620260216384F83D60B8
:103F200084F83E102046FEF70FFAE8E7E762212208
:103F3000226384F83D6084F83E10416821F4E0611A
:103F40004160206845612068016821F4806101605A
:103F50002046FFF71BFC2046FEF73BFACFE70000A8
:103F60000000FFFFF8B590F83D6004460068416826
:103F700021F4E061416020680025416900910168F9
:103F800041F0010101602068016821F48061016055
:103F900020684168090520D5474F222E48D02A2E97
:103FA00046D0616B096849686185618D19B1216CE2
:103FB00041F004012164416821F400614160606BBB
:103FC000FDF7EEFC012808D0606B4763606BFDF7DE
:103FD0004FFC10B1606B416B8847608D08B320685F
:103FE0004169C943490708D40069616A0870606A79
:103FF000401C6062608D401E608520684169C94335
:10400000490608D40069616A0870606A401C6062F1
:10401000608D401E6085608D18B1206C40F00400FA
:104020002064206C00B32046BDE8F840FFF7B6BB23
:10403000A16B096849686185618D19B1216C41F0F6
:1040400004012164416821F400614160A06BFDF727
:10405000A7FC0128C1D0A06B4763A06BFDF708FC4B
:104060000028BAD0A06BB6E72A2E06D125632820F7
:1040700084F83D002046FEF7ABF994F83D1020206F
:1040800028290DD0216B222901D0222E07D12563AA
:1040900084F83D0084F83E502046FEF799F9F8BDBB
:1040A0000649E162256384F83D0084F83E502046CD
:1040B000FEF74AF9F8BD0000D13600080000FFFF06
:1040C0003EB500241B4800940194194902940160F4
:1040D0008915816004730475032505614FF460211F
:1040E0004460C161FDF7C0FA08B1FCF74DFC0094D3
:1040F00001240520CDE9014069460E48FDF7C6F9C7
:1041000008B1FCF741FC0094022469460948019477
:10411000FDF7BCF908B1FCF737FC69460548CDE965
:104120000045FDF7B3F9002801D0FCF72DFC3EBD9A
:104130000024014060000020094808B5416941F0B1
:10414000010141614069002200F001000090052159
:104150000B20FEF7E3F9BDE808400B20FEF7D0B9CD
:10416000001002402DE9F04F85B000266C48009603
:10417000019602960396816941F01001816181697F
:1041800001F010010491816941F020018161816990
:1041900001F020010491816941F00401816181698C
:1041A00001F004010491816941F008018161806995
:1041B000DFF870A100F0080004900122CF215046E2
:1041C000FDF775FEDFF860B10122B8215846FDF712
:1041D0006EFE41F21008012241465448FDF767FE89
:1041E0004FF40069002249465846FDF760FE01225F
:1041F00004214F48FDF75BFE002208214B48FDF7E4
:1042000056FE4FF4C04000904A480124CDE9010415
:1042100069465046FDF74AFDCF20CDE9000403254D
:1042200069465046CDE90245FDF740FDB820CDE98D
:10423000000469465846CDE90245FDF737FD4FF4C5
:104240004C7002278DE8C10069465046FDF72EFDEF
:1042500040F603408DE8C10069463448FDF726FD6D
:10426000CDE9008469463148CDE90245FDF71EFDE0
:1042700020028DE8C10069465846FDF717FDCDF8CC
:1042800000900395CDE9014769465846FDF70EFDBC
:10429000DFF8A480E003CDE900086946029458469F
:1042A000FDF704FD2003CDE900066946029450465F
:1042B000FDF7FCFC0420CDE9000469461C48CDE96B
:1042C0000245FDF7F3FC082003958DE8910069464F
:1042D0001648FDF7EBFC202000901848CDE90104BA
:1042E00069461248FDF7E2FC2802CDE9000869465C
:1042F00002940E48FDF7DAFC002204211720FEF795
:104300000DF91720FEF7FCF8002204212820FEF703
:1043100005F92820FEF7F4F805B0BDE8F08F00009D
:10432000001002400010014000080140000C014054
:104330000014014000002110000031100000111095
:104340000D4810B50B4901600C49416000214FF444
:1043500080428160C0E9031241618161C1610162F3
:10436000FDF72EFF002803D0BDE81040FCF70CBB82
:1043700010BD000000540040D4000020A0860100C1
:10438000094810B5074901600421416040F2E2414B
:104390008160FEF71FF8002803D0BDE81040FCF74D
:1043A000F3BA10BD0030004028010020104810B5BD
:1043B0000E4901604FF48271416000218160C1604B
:1043C0004FF400720161C0E905121822C0E907210B
:1043D000416281620A21C162FEF736FC002803D0E7
:1043E000BDE81040FCF7D0BA10BD00000038004016
:1043F0003401002010B58EB000240794089409946D
:104400000A940B941C2168460C94FBF7D8FE1F48B5
:104410001D4901602321C0E901146321C0E903148F
:1044200080218161FEF700FD08B1FCF7ADFA4FF481
:104430008050079007A91548FEF742FD08B1FCF728
:10444000A3FA1248FEF7D1FE08B1FCF79DFA0B94CF
:104450000BA90E480C94FEF7A9FC08B1FCF794FADE
:10446000602000903220CDE901040022694607480F
:104470000494FEF754FE08B1FCF786FA0348FEF7F1
:1044800027FE0EB010BD0000000400408C0100208B
:104490000C4810B50A4901604FF4165141600021E3
:1044A00081600C22C160C0E904128161C161FFF723
:1044B00005F8002803D0BDE81040FCF765BA10BD30
:1044C00000380140D40200200C4810B50A490160B0
:1044D0004FF4E1314160002181600C22C160C0E9EC
:1044E00004128161C161FEF7E9FF002803D0BDE835
:1044F0001040FCF749BA10BD004800401C030020E2
:10450000FEE7FEE7FEF73EB8704700000148FEF701
:104510002BBB00003401002010B5406A0021C18788
:10452000C186FEF71FFB10BD7047FDF789BF30B590
:1045300095B028216846FBF742FE14210AA8FBF734
:104540003EFE18210FA8FBF73AFE0920012100903A
:104550004FF48030002504910691CDE90105022435
:10456000CDE907404FF4E01009906846FEF76AF97C
:1045700098B90AA90F2081E831006002CDE90D0544
:1045800002210AA8FEF782F838B9A00311900F940F
:104590000FA8FEF705F8002801D0FCF7F5F915B0D3
:1045A00030BD70470148FEF7FABC00008C010020C6
:1045B000F0B50268204C214D214E224F224B4FF086
:1045C000804CA04209D0984207D0604505D0A8424F
:1045D00003D0B04201D0B84204D122F0700E4A6834
:1045E00042EA0E02A04209D0984207D0604505D0A9
:1045F000A84203D0B04201D0B84203D122F44075A2
:10460000CA682A434D6922F080022A4302608A6800
:10461000C2620A688262A04201D0984201D109694F
:104620000163012141610169C90703D0016921F0DA
:1046300001010161F0BD0000002C014000040040B8
:1046400000080040000C00400034014010B58468B0
:1046500042EA032224F47F440A432243826010BDCD
:10466000826822F070020A4342F0070181607047BD
:10467000F0B5036A026A22F00102026242688469AC
:10468000124E24F073050C682C4323F002058B684E
:104690002B430D4DA84201D0B04205D123F00807AD
:1046A000CB683B4323F00403A84201D0B04205D1BC
:1046B0004D6922F4407215438A692A43426084613D
:1046C000496841630362F0BD002C014000340140A1
:1046D000F0B5026A036A23F0100303624368846939
:1046E0000D6824F4E64444EA05248D6822F0200293
:1046F00042EA05120F4D104EA84201D0B04206D139
:10470000CF6822F0800242EA071222F04002A8425B
:1047100001D0B04207D14D6923F4406343EA8503D9
:104720008D6943EA8503436084614968816302625D
:10473000F0BD0000002C014000340140F0B5026AD9
:10474000036A23F4807303624368C46922F400722D
:1047500024F073050C68124E2C438D6842EA052242
:104760000E4DA84201D0B04206D1CF6822F40062BB
:1047700042EA072222F48062A84201D0B04207D167
:104780004D6923F4405343EA05138D6943EA051349
:104790004360C4614968C1630262F0BD002C0140FE
:1047A0000034014030B5046A026A22F48052026289
:1047B0004268C3690D6823F4E64343EA05238D6824
:1047C00024F4005444EA0534084DA84202D0084DB0
:1047D000A84204D14D6922F4804242EA8512426027
:1047E000C36149680164046230BD0000002C0140CF
:1047F0000034014010B5036A046A24F00104046225
:10480000846924F0F00444EA021423F00A020A4303
:104810008461026210BD10B5036A046A24F01004BA
:104820000462846923F0A00324F4704444EA023251
:1048300043EA01118261016210BD10B5406A002196
:10484000C185C184FEF703FD10BD01680C3151E83C
:10485000002F22F4907241E80023002BF5D101686B
:10486000143151E8002F22F0010241E80023002B0F
:10487000F5D1016B012909D101680C3151E8002FF4
:1048800022F0100241E80023002BF5D1202180F80E
:10489000421000210163704708B590F842102229A8
:1048A00001D0022008BD82684FF480539A4201D1A2
:1048B000016921B1816A9A421BD04AB10AE00268BB
:1048C000816A5268C2F308020A80816A891C08E082
:1048D000026972B10268526802F07F020A70816A4E
:1048E000491C8162C18D491E0904090CC18503D090
:1048F0001BE002685268F1E70168CA6822F02002F2
:10490000CA600168CA6822F48072CA6001684A6994
:1049100022F001024A61202180F842100021416307
:10492000026B012A03D0FEF773FE002008BD01636D
:1049300001680C3151E8002F22F0100241E80023F9
:10494000002BF5D101680A68D20602D50A684968C9
:104950000091818DFEF77AFCE7E7000070B5044610
:1049600000680169E26821F4405111430161216945
:10497000A0680843616908432168CA6841F20C6372
:104980009A430243CA6020684169A26921F44071D8
:10499000114341611E492068884202D1FDF71CFF86
:1049A00001E0FDF709FF00EBC00101EB00126068B8
:1049B00064218000B2FBF0F3B3FBF1F36FF0180653
:1049C0007343B2FBF0F5B2FBF0F605EB830532233F
:1049D00003EB0515B5FBF1F5B6FBF1F605F0F005B7
:1049E00005EB0615B2FBF0F6B2FBF0F0B0FBF1F010
:1049F0006FF01802504306EB800003EB0010B0FB91
:104A0000F1F0216800F00F002844886070BD0000BC
:104A1000003801402DE9F843984617460D460446F4
:104A2000089E24E0701C22D0FDF746FAA0EB080097
:104A3000B0421AD8CEB12068C168490717D5802D79
:104A400015D0402D13D00168C94309070FD4016860
:104A50000025406800902046FFF7F7FE08206064BC
:104A600084F840500120BDE8F8830320FBE720686C
:104A7000006835EA000004D00020B842D2D00020FF
:104A8000F1E70120F9E700000148FEF7E1BB000073
:104A9000D40200200148FEF7DBBB00001C0300200D
:104AA00070B505460C460846FBF7A0FB82B22146CE
:104AB0002846BDE870404FF47A73FEF7AABDFEE7C2
:104AC0000FB47CB50C0009AD01D0611E00E00021DF
:104AD000CDE90001064B6A462946089800F006F920
:104AE000002C02D0009A002111707CBC5DF814FBF0
:104AF000F35300087CB50C001D461646014601D054
:104B0000601E00E00020CDE90010064B6A462946F1
:104B1000304600F0EBF8002C02D0009A0021117012
:104B20007CBD0000F35300080907090E002804DBD0
:104B300000F1E02080F80014704700F00F0000F151
:104B4000E02080F8141D704702E008C8121F08C159
:104B5000002AFAD170477047002001E001C1121FFE
:104B6000002AFBD1704700002DE9FF5F82B00021D1
:104B7000DDE90430020DDDF840B0034318D044F6FF
:104B80001050A2F2FF3242431514119801281FD091
:104B9000A5EB0B00401C5FEA000A4FF000064E4FE9
:104BA000DFF83891B046504615D5CAF1000413E03D
:104BB000119801244AA3012801D16FEA0B01029840
:104BC000119AC0E90031C0E9024206B0BDE8F09F89
:104BD000CBF10000DFE704460021404A491842EBD0
:104BE0000450CDE9001012E0E00707D032463B4602
:104BF00040464946FBF7EFFB8046894632463B4636
:104C000010461946FBF7E7FB06460F466410002CDA
:104C1000EAD1DDE90401DDE90023BAF1000F06DA8B
:104C2000FBF7D9FB42464B46FBF7D5FB05E0FBF70C
:104C300044FC42464B46FBF740FC04460E4600222D
:104C4000284BFBF7C1FC03D84FF0FF30014607E0CB
:104C50000022254B20463146FBF716FBFBF79CFC58
:104C6000102409E0002C0ADB0A220023FBF7DBFA00
:104C7000039B30321A55641E50EA0102F2D1641CC3
:104C8000039AC4F111031444119A012A03D001229A
:104C900008430DD10AE0084304D000204FF0110B67
:104CA000119072E7A3EB0B056D1E0DE05B4504DD73
:104CB0004FF0000205F1010504E003DA4FF00002B5
:104CC000A5F10105002AECD002981199C0E9023142
:104CD000C0E9004579E70000000014400000F03F03
:104CE000300000000000F0430000E03F2DE9FF4FDE
:104CF00095B09A46884606460025EEE1252877D1EC
:104D000000242746F94A0121039400E0044316F8E1
:104D1000013F203B01FA03F01042F7D130782A28F6
:104D200011D06FF02F033078A0F13002092A16D885
:104D3000039A44F0020402EB820203EB42021044A5
:104D4000761C0390EFE758F8042B0392002A03DA4D
:104D5000504244F40054039044F00204761C30782E
:104D60002E2816D116F8010F44F004042A280DD07D
:104D70006FF02F023078A0F13003092B09D807EB30
:104D8000870302EB4303C718761CF3E758F8047B4C
:104D9000761C30786C280FD006DC4C2817D0682899
:104DA0000DD06A2814D104E0742810D07A280FD1CD
:104DB0000DE044F400140AE044F4801401E044F4EB
:104DC00040147278824202D104F58014761C761C5D
:104DD000307866280BD013DC582877D009DC0028FF
:104DE00075D04528F6D04628F4D047281AD193E14B
:104DF00018E0632835D0642879D0652812D18BE17A
:104E0000702873D008DC6728F1D069286FD06E282D
:104E10000DD06F2806D1ACE073282CD0752874D043
:104E2000782853D05246179990476D1C54E1C4F32B
:104E30000250022809D003280DD0D8F80010042809
:104E40000DD00D6008F1040846E1D8F80010EA170B
:104E5000C1E90052F6E7D8F800100D80F2E70D70B6
:104E6000F0E718F8041B8DF8001000208DF8010001
:104E7000EB46012003E058F804BB4FF0FF30610718
:104E80004FF0000102D40DE009F101018946B94259
:104E90000FDA8145F8DB1BF809100029F4D108E08E
:104EA00009F1010189468142FADB1BF8091000294A
:104EB000F6D103985346A0EB090721463846179AC6
:104EC00000F080FA284400EB090507E044E008E11F
:104ED0000DE01BF8010B524617999047B9F10109F3
:104EE000F7D2534621463846179AF2E039E00A21B4
:104EF000C4F302524FF0000B0091022A06D058F87A
:104F0000040BC117032A09D00AE023E008F10700C7
:104F100020F00702F2E80201904605E000B2C11756
:104F2000042A01D140B2C117002906DA0A4600213D
:104F3000404261EB02012D2202E0220504D52B2222
:104F40008DF80420012203E0E20701D02022F7E7D8
:104F5000914657E00A2100E010214FF0000B00912C
:104F60000BE010214FF0000B44F0040408270091DF
:104F700003E008204FF0000B0090C4F30252022A15
:104F800005D058F8040B0021032A08D008E008F1E6
:104F9000070020F00702F2E80201904603E080B229
:104FA000042A00D1C0B24FF0000922072AD5327876
:104FB000702A07D0DDF800C08CF0100C5CEA0B0CF6
:104FC00005D00EE040228DF80420012208E050EACE
:104FD000010306D030238DF804308DF8052002221D
:104FE0009146009B83F0080353EA0B030AD150EA71
:104FF000010201D1620705D530228DF804204FF05F
:1050000001097F1E3278582A04D039A20C920CAACA
:1050100002920BE03BA2F9E75B46009AFBF703F92B
:105020000C9B9B5C029A521E0292137050EA010282
:10503000F2D1029804A9081A00F1200B600702D5EA
:1050400024F4803400E001275F4502DDA7EB0B006C
:1050500000E0002000EB0B01009003984944401A47
:105060000390E00306D453462146179A039800F0B4
:10507000A9F90544002706E001A85246C05D17992A
:1050800090476D1C7F1C4F45F6DBE0030CD5534663
:105090002146179A039800F095F9054404E0302062
:1050A0005246179990476D1C0099481E00900029A0
:1050B000F5DC08E00298029952460078491C0291FA
:1050C000179990476D1CBBF10001ABF1010BF1DCAE
:1050D0005BE100F065F90544761C307800287FF428
:1050E0000DAE19B02846BDE8F08F00000928010078
:1050F000303132333435363738396162636465664E
:10510000000000003031323334353637383941420F
:105110004344454600000000600700D4062708F11C
:10512000070020F00700F0E80223804603F0004C5F
:105130005FEA0C0001D097A009E0200501D596A0F8
:1051400005E0E00701D095A001E0AFF24C0013901C
:10515000307823F0004365280CD006DC452809D0C0
:1051600046281DD047287FD13BE0662818D0672805
:105170007AD136E00021112F01DB112000E0781CEC
:10518000CDE9000104A90CA8FFF7EEFCDDE90D0153
:105190000C9A4FF0000B07F10109109200914EE0BC
:1051A0004FF000400097CDE9011004A90CA8FFF7CB
:1051B000DBFCDDE90D020C9B0F994FF0000B9146D3
:1051C0001093009211B9791C00EB0109B7EB0900AB
:1051D00003D4C0F1FF3B07F10109A9EB07000190DF
:1051E00042E0012F00DA01270021112F01DD1120FB
:1051F00000E03846CDE9000104A90CA8FFF7B4FC93
:10520000DDE90D010C9A00914FF0000BB9461092A8
:1052100021070FD4009A4A4503DA914601E0A9F12B
:105220000109B9F1010F05DD109AA9F10101515CE5
:105230003029F4D0B84202DA10F1040F03DA012168
:10524000CDE9011010E0002803DC8344A9EB000144
:1052500002E0411C494500DD8946A0EB0B00401CE3
:1052600001904FF000400290200705D40198484576
:1052700002DB4FF0FF30019000208DF84B000298C8
:105280000DF14B07B0F1004F25D002200C902B20E0
:105290000D90029800280CDA404202902D200D90CB
:1052A00007E00A210298FAF7A8FF3031029007F8C8
:1052B000011D0C99481E0C900029F2DC0298002870
:1052C000EFD1791E0D980870307800F0200040F082
:1052D000450007F8020D11A8C01BC01D02901398CD
:1052E000007800B1012000EB0901019801EBE071A9
:1052F000029801440398401A401E0390E00306D42C
:1053000053462146179A039800F05CF80544139819
:10531000007818B15246179990476D1CE00323D5C9
:1053200053462146179A039800F04CF805441BE0B9
:10533000BBF1000F07DB0098584504DD1098179962
:1053400010F80B0001E01799302052469047019861
:105350000BF1010B401E05F10105019004D12E2037
:105360005246179990476D1CB9F10001A9F1010946
:10537000DEDC05E017F8010B5246179990476D1CCB
:105380000299481E02900029F4DC53462146179AE0
:1053900003989EE62D0000002B0000002000000076
:1053A0002DE9F041044600251E461746880404D422
:1053B00005E039462020B0476D1C641EF9D528460B
:1053C000BDE8F0812DE9F041044600251E469046D7
:1053D000C80301D5302700E02027880404D505E064
:1053E00041463846B0476D1C641EF9D52846BDE8D5
:1053F000F0814A68002A06D00A68531C0B601070BE
:105400004868401E4860704708B5FDF721F8FFF76F
:105410008EF8FEF7A7FEFEF78FFEFEF751FEFEF7B1
:105420008FFFFEF7ADFFFEF7C1FFFEF7E3FFFFF7CB
:105430002FF8FFF749F8FBF7CFF964A10220FBF73B
:105440004DFA67A10220FBF749FA6FA10220FBF792
:1054500045FA70A372A275A10220FBF73FFA77A16B
:105460000220FBF73BFAFBF7CFFCFBF74FFCFBF707
:105470002BFF79A10220FBF731FA4FF000084746D5
:1054800046467BA10220FBF729FA00244FF4FA7963
:10549000FCF712FD0546C01B642809D3FBF73AFF51
:1054A000FBF78AFE18B17AA10120FBF717FA2F4605
:1054B000002C4FD142F2107085424BD379A10220CB
:1054C000FBF70CFA621C7EA10220FBF707FA814869
:1054D000FCF7AFFFE0B20021FBF728FD6420FCF7EA
:1054E000C5FB7C48FCF7A5FFE0B2FBF7C7FD08B1A0
:1054F00079A300E07AA3621C7BA10220FBF7EEF9FE
:105500004846FCF7B3FB7348FCF793FFE0B2012178
:10551000FBF70CFD6420FCF7A9FB6E48FCF789FF44
:10552000E0B2FBF7ABFD08B16DA300E06AA3621C1B
:1055300074A10220FBF7D2F94846FCF797FB6548B7
:10554000FCF777FF641C032CBCDB75A10220FBF782
:10555000C5F90124A5EB080141F2883081422DD321
:10556000761C324674A10220FBF7B8F90A20B6FB7C
:10557000F0F100FB116000BB73A10220FBF7AEF954
:10558000FBF712FF0020FBF75DFA82460120FBF7D4
:1055900059FA80460220FBF755FA009043465246DE
:1055A0006FA10220FBF79AF90020FBF73BFA0120DC
:1055B000FBF738FA0220FBF735FAA8464548FCF716
:1055C00038FF0A20FCF752FB62E700003D3D3D201A
:1055D000CFB5CDB3C6F4B6AF203D3D3D00000000D1
:1055E00053544D3332463130335243543620C8FD84
:1055F000CDA8B5C0B8DFD1B9C7D0BBBBCFE4BFD849
:10560000D6C6CFB5CDB30000B0E6B1BE3A207632F3
:105610002E30000032333A32323A3034000000008B
:105620004A756E203239203230323500B1E0D2EB8B
:10563000CAB1BCE43A202573202573003D3D3D20CE
:10564000B3F5CABCBBAF4750494FB9A6C4DCC4A32D
:10565000BFE9203D3D3D00004750494FB9A6C4DC9D
:10566000C4A3BFE9B3F5CABCBBAFCDEAB3C9000060
:10567000BDF8C8EBD6F7D1ADBBB7A3ACBFAACABCC7
:105680004750494FB9A6C4DCB2E2CAD400000000BA
:10569000BCECB2E2B5BD4750494FD7B4CCACD2EC6C
:1056A000B3A300003D3D3D20BFAACABCBCF2BBAFC6
:1056B000BCCCB5E7C6F7B2E2CAD4203D3D3D000000
:1056C000B2E2CAD4CDA8B5C02564BCCCB5E7C6F754
:1056D0000000000028010020B3C9B9A600000000A6
:1056E000CAA7B0DC000000002020CDA8B5C025640A
:1056F000CEFCBACFB2E2CAD4BDE1B9FB3A202573E1
:10570000000000002020CDA8B5C02564B6CFBFAAF8
:10571000B2E2CAD4BDE1B9FB3A2025730000000013
:105720003D3D3D20BCCCB5E7C6F7B2E2CAD4CDEAD8
:10573000B3C9203D3D3D0000D6F7D1ADBBB7BCC6D7
:10574000CAFD3A20256C75003D3D3D20CFEACFB81B
:10575000D7B4CCACB1A8B8E6203D3D3D0000000078
:10576000D6D0B6CFD7B4CCAC3A20CDA8B5C03D305A
:1057700078253032582C2044433D3078253032583B
:105780002C20B0B4BCFC3D307825303258000000ED
:10579000010202030405060708090A0B0C0D0E0F8F
:1057A00010100000000000000000010203040607C2
:1057B000080900000000010203040000BCCCB5E7AA
:1057C000C6F7D7B4CCAC3A204B315F313D25642CC1
:1057D000204B315F323D25642C204B325F313D251B
:1057E000642C204B325F323D25642C204B335F31DB
:1057F0003D25642C204B335F323D256400000000C2
:10580000205800080000002014000000484B000849
:10581000345800081400002054070000584B0008BA
:105820000000000001000000100000000000000067
:0458300000127A00E8
:0400000508000131BD
:00000001FF
